:020000040800F2
:10000000000002205D9A00085199000855990008E7
:10001000699900087D990008919900080000000086
:10002000000000000000000000000000A59900088A
:10003000A799000800000000A9990008AB990008E2
:10004000AD9A0008AD9A0008AD9A0008AD9A000874
:10005000AD9A0008AD9A0008AD9A0008AD9A000864
:10006000AD9A0008AD9A0008AD9A0008B59900084D
:10007000C5990008AD9A0008AD9A0008AD9A00082D
:10008000AD9A0008AD9A0008AD9A0008AD9A000834
:10009000AD9A0008D5990008E5990008AD9A0008C6
:1000A000AD9A0008AD9A0008AD9A0008AD9A000814
:1000B000AD9A0008AD9A0008AD9A0008AD9A000804
:1000C000AD9A0008AD9A0008AD9A0008AD9A0008F4
:1000D000AD9A0008AD9A0008AD9A0008AD9A0008E4
:1000E000AD9A0008AD9A0008AD9A0008AD9A0008D4
:1000F000AD9A0008AD9A0008AD9A0008AD9A0008C4
:10010000AD9A0008AD9A0008AD9A0008AD9A0008B3
:10011000F5990008AD9A0008AD9A0008AD9A00085C
:10012000AD9A0008AD9A0008AD9A0008AD9A000893
:10013000AD9A0008AD9A0008AD9A0008AD9A000883
:10014000AD9A0008AD9A0008AD9A0008AD9A000873
:10015000AD9A0008AD9A0008AD9A0008AD9A000863
:10016000AD9A0008AD9A0008AD9A0008AD9A000853
:10017000AD9A0008AD9A0008AD9A0008AD9A000843
:10018000AD9A0008AD9A0008AD9A0008AD9A000833
:10019000AD9A000800000000AD9A0008AD9A000872
:1001A000AD9A0008AD9A0008AD9A0008AD9A000813
:1001B000AD9A0008AD9A0008AD9A0008AD9A000803
:1001C000AD9A0008AD9A0008AD9A0008AD9A0008F3
:0801D000AD9A0008AD9A000889
:1001D80010B5054C237833B9044B13B10448AFF379
:1001E80000800123237010BDB80400200000000027
:1001F80020B6000808B5034B1BB103490348AFF309
:10020800008008BD00000000BC04002020B60008E3
:1002180081F0004102E000BF83F0004330B54FEAAF
:1002280041044FEA430594EA050F08BF90EA020F1C
:100238001FBF54EA000C55EA020C7FEA645C7FEAAF
:10024800655C00F0E2804FEA5454D4EB5555B8BFD2
:100258006D420CDD2C4480EA020281EA030382EA43
:10026800000083EA010180EA020281EA0303362DD5
:1002780088BF30BD11F0004F4FEA01314FF4801CA8
:100288004CEA113102D0404261EB410113F0004FBA
:100298004FEA03334CEA133302D0524263EB430371
:1002A80094EA050F00F0A780A4F10104D5F1200E0F
:1002B8000DDB02FA0EFC22FA05F2801841F100016A
:1002C80003FA0EF2801843FA05F359410EE0A5F13E
:1002D80020050EF1200E012A03FA0EFC28BF4CF06F
:1002E800020C43FA05F3C01851EBE37101F0004525
:1002F80007D54FF0000EDCF1000C7EEB00006EEB32
:100308000101B1F5801F1BD3B1F5001F0CD34908BB
:100318005FEA30004FEA3C0C04F101044FEA445212
:1003280012F5800F80F09A80BCF1004F08BF5FEA99
:10033800500C50F1000041EB045141EA050130BD79
:100348005FEA4C0C404141EB010111F4801FA4F11C
:100358000104E9D191F0000F04BF01460020B1FA71
:1003680081F308BF2033A3F10B03B3F120020CDAA9
:100378000C3208DD02F1140CC2F10C0201FA0CF087
:1003880021FA02F10CE002F11402D8BFC2F1200CEC
:1003980001FA02F120FA0CFCDCBF41EA0C019040A2
:1003A800E41AA2BF01EB0451294330BD6FEA0404EB
:1003B8001F3C1CDA0C340EDC04F11404C4F12002D6
:1003C80020FA04F001FA02F340EA030021FA04F3E8
:1003D80045EA030130BDC4F10C04C4F1200220FA3F
:1003E80002F001FA04F340EA0300294630BD21FA7D
:1003F80004F0294630BD94F0000F83F4801306BF43
:1004080081F480110134013D4EE77FEA645C18BF36
:100418007FEA655C29D094EA050F08BF90EA020FCD
:1004280005D054EA000C04BF1946104630BD91EAC5
:10043800030F1EBF0021002030BD5FEA545C05D1C8
:100448004000494128BF41F0004130BD14F5800407
:100458003CBF01F5801130BD01F0004545F0FE417B
:1004680041F470014FF0000030BD7FEA645C1ABFB0
:10047800194610467FEA655C1CBF0B46024650EAE7
:10048800013406BF52EA033591EA030F41F4002113
:1004980030BD00BF90F0000F04BF0021704730B599
:1004A8004FF4806404F132044FF000054FF000016E
:1004B80050E700BF90F0000F04BF0021704730B52F
:1004C8004FF4806404F1320410F0004548BF404204
:1004D8004FF000013EE700BF42004FEAE2014FEA59
:1004E80031014FEA02701FBF12F07F4393F07F4F34
:1004F80081F06051704732F07F4208BF704793F037
:100508007F4F04BF41F40021704730B54FF4607449
:1005180001F0004521F000411CE700BF50EA01024C
:1005280008BF704730B54FF000050AE050EA0102F5
:1005380008BF704730B511F0004502D5404261EB65
:1005480041014FF4806404F132045FEA915C3FF4A6
:10055800D8AE4FF003025FEADC0C18BF03325FEA43
:10056800DC0C18BF033202EBDC02C2F1200300FAF4
:1005780003FC20FA02F001FA03FE40EA0E0021FA19
:1005880002F11444BDE600BF70B54FF0FF0C4CF407
:10059800E06C1CEA11541DBF1CEA135594EA0C0FB9
:1005A80095EA0C0F00F0DEF82C4481EA030621EAF4
:1005B8004C5123EA4C5350EA013518BF52EA03352F
:1005C80041F4801143F4801338D0A0FB02CE4FF0E1
:1005D8000005E1FB02E506F00042E0FB03E54FF011
:1005E8000006E1FB03569CF0000F18BF4EF0010E09
:1005F800A4F1FF04B6F5007F64F5407404D25FEA05
:100608004E0E6D4146EB060642EAC62141EA5551B7
:100618004FEAC52040EA5E504FEACE2EB4F1FD0CF9
:1006280088BFBCF5E06F1ED8BEF1004F08BF5FEA77
:10063800500E50F1000041EB045170BD06F0004629
:1006480046EA010140EA020081EA0301B4EB5C04D6
:10065800C2BFD4EB0C0541EA045170BD41F48011CE
:100668004FF0000E013C00F3AB8014F1360FDEBFF3
:10067800002001F0004170BDC4F10004203C35DACF
:100688000C341BDC04F11404C4F1200500FA05F352
:1006980020FA04F001FA05F240EA020001F00042F3
:1006A80021F0004110EBD37021FA04F642EB060169
:1006B8005EEA430E08BF20EAD37070BDC4F10C0493
:1006C800C4F1200500FA04F320FA05F001FA04F257
:1006D80040EA020001F0004110EBD37041F1000143
:1006E8005EEA430E08BF20EAD37070BDC4F120054E
:1006F80000FA05F24EEA020E20FA04F301FA05F2B6
:1007080043EA020321FA04F001F0004121FA04F25D
:1007180020EA020000EBD3705EEA430E08BF20EA2D
:10072800D37070BD94F0000F0FD101F00046400067
:1007380041EB010111F4801F08BF013CF7D041EAE9
:10074800060195F0000F18BF704703F000465200ED
:1007580043EB030313F4801F08BF013DF7D043EABE
:100768000603704794EA0C0F0CEA135518BF95EA74
:100778000C0F0CD050EA410618BF52EA4306D1D1FB
:1007880081EA030101F000414FF0000070BD50EA1A
:10079800410606BF1046194652EA430619D094EAA4
:1007A8000C0F02D150EA013613D195EA0C0F05D18E
:1007B80052EA03361CBF104619460AD181EA0301E2
:1007C80001F0004141F0FE4141F470014FF000009A
:1007D80070BD41F0FE4141F4780170BD70B54FF035
:1007E800FF0C4CF4E06C1CEA11541DBF1CEA1355B5
:1007F80094EA0C0F95EA0C0F00F0A7F8A4EB050497
:1008080081EA030E52EA03354FEA013100F088808D
:100818004FEA03334FF0805545EA131343EA126356
:100828004FEA022245EA111545EA10654FEA00260B
:100838000EF000419D4208BF964244F1FD0404F5C4
:10084800407402D25B084FEA3202B61A65EB030520
:100858005B084FEA32024FF480104FF4002CB6EBDD
:10086800020E75EB030E22BFB61A754640EA0C005D
:100878005B084FEA3202B6EB020E75EB030E22BF9D
:10088800B61A754640EA5C005B084FEA3202B6EBDE
:10089800020E75EB030E22BFB61A754640EA9C009D
:1008A8005B084FEA3202B6EB020E75EB030E22BF6D
:1008B800B61A754640EADC0055EA060E18D04FEA2B
:1008C800051545EA16754FEA06164FEAC30343EACB
:1008D80052734FEAC2025FEA1C1CC0D111F4801F98
:1008E8000BD141EA00014FF000004FF0004CB6E791
:1008F80011F4801F04BF01430020B4F1FD0C88BF30
:10090800BCF5E06F3FF6AFAEB5EB030C04BFB6EB3A
:10091800020C5FEA500C50F1000041EB045170BD2D
:100928000EF0004E4EEA113114EB5C04C2BFD4EB5A
:100938000C0541EA045170BD41F480114FF0000EDE
:10094800013C90E645EA060E8DE60CEA135594EA5A
:100958000C0F08BF95EA0C0F3FF43BAF94EA0C0F5D
:100968000AD150EA01347FF434AF95EA0C0F7FF4D2
:1009780025AF104619462CE795EA0C0F06D152EA26
:1009880003353FF4FDAE1046194622E750EA41060A
:1009980018BF52EA43067FF4C5AE50EA41047FF41B
:1009A8000DAF52EA43057FF4EBAE12E753B94AB9EB
:1009B800002908BF00281CBF4FF0FF314FF0FF305F
:1009C80000F072B9ADF1080C6DE904CE00F006F83C
:1009D800DDF804E0DDE9022304B070472DE9F047B3
:1009E800089E04468846002B4BD18A42154667D993
:1009F800B2FA82F24AB1C2F1200701FA02F320FAF0
:100A080007F7954047EA030894404FEA154E230C30
:100A1800B8FBFEF71FFA85FC0EFB178843EA08436C
:100A280007FB0CF1994209D9EB1807F1FF3080F068
:100A38001B81994240F21881023F2B445B1AA4B2F1
:100A4800B3FBFEF00EFB103344EA034400FB0CFC3E
:100A5800A44509D92C1900F1FF3380F00781A4457A
:100A680040F2048102382C4440EA0740A4EB0C040D
:100A780000271EB1D4400023C6E900433946BDE82B
:100A8800F0878B4209D9002E00F0EB800027C6E9D9
:100A9800000138463946BDE8F087B3FA83F7002FDE
:100AA80047D18B4202D3824200F2FA80841A61EB6A
:100AB800030301209846002EE0D0C6E90048DDE790
:100AC80002B9FFDEB2FA82F2002A40F08F80491B99
:100AD8004FEA154E1FFA85F80127B1FBFEFC230CDF
:100AE8000EFB1C1143EA014308FB0CF1994207D99C
:100AF800EB180CF1FF3002D2994200F2CD80844607
:100B0800591AA3B2B1FBFEF00EFB101443EA0444D9
:100B180008FB00F8A04507D92C1900F1FF3302D2D1
:100B2800A04500F2B6801846A4EB080440EA0C4041
:100B38009FE7C7F1200CBB4022FA0CFE4EEA030ED9
:100B480001FA07F420FA0CF521FA0CF34FEA1E48D3
:100B58002543B3FBF8F92C0C08FB19331FFA8EFA5E
:100B680044EA034309FB0AF49C4202FA07F200FA3A
:100B780007F10BD91EEB030309F1FF3080F08780E2
:100B88009C4240F28480A9F1020973441B1BADB258
:100B9800B3FBF8F008FB103345EA034400FB0AFAFC
:100BA800A24508D91EEB040400F1FF336BD2A2451D
:100BB80069D90238744440EA0940A0FB0289A4EBD1
:100BC8000A044C45C2464B4654D351D0002E69D036
:100BD800B1EB0A0564EB030404FA0CFCFD40FC408D
:100BE8004CEA0505C6E90054002747E7C2F120038F
:100BF80020FA03F7954001FA02F021FA03F34FEACD
:100C0800154E3843010CB3FBFEF71FFA85F80EFBAF
:100C1800173341EA034107FB08F38B4204FA02F455
:100C280007D9691807F1FF3C2FD28B422DD9023F13
:100C38002944CB1A81B2B3FBFEF00EFB103341EA14
:100C4800034100FB08F38B4207D9691800F1FF3C08
:100C580017D28B4215D902382944C91A40EA0747E6
:100C68003BE73746304609E70746E7E61846FBE61E
:100C78004145ABD2B8EB020A69EB0E0201381346C4
:100C8800A4E76046E9E7184695E76746D1E7814655
:100C98007CE702382C4447E7ACF1020C2B442FE7E1
:100CA800384608E73746E9E6704700BF034613F8B9
:100CB800012B002AFBD1181A013870474FF0FF3C6E
:100CC80006E000BF4FF0010C02E000BF4FF0010C3E
:100CD8004DF804CD4FEA410C7FEA6C5C4FEA430CB7
:100CE80018BF7FEA6C5C1BD001B050EA410C0CBF06
:100CF80052EA430C91EA030F02BF90EA020F002068
:100D0800704710F1000F91EA030F58BF994208BFCE
:100D180090422CBFD8176FEAE37040F0010070478B
:100D28004FEA410C7FEA6C5C02D150EA013C07D1E2
:100D38004FEA430C7FEA6C5CD6D152EA033CD3D02D
:100D48005DF8040B704700BF8446104662468C4627
:100D58001946634600E000BF01B5FFF7B7FF00285A
:100D680048BF10F1000F01BD4DF808EDFFF7F4FF83
:100D78000CBF012000205DF808FB00BF4DF808ED0E
:100D8800FFF7EAFF34BF012000205DF808FB00BF31
:100D98004DF808EDFFF7E0FF94BF012000205DF853
:100DA80008FB00BF4DF808EDFFF7CEFF94BF012008
:100DB80000205DF808FB00BF4DF808EDFFF7C4FF01
:100DC80034BF012000205DF808FB00BF4FEA410C4A
:100DD8007FEA6C5C02D150EA013C0AD14FEA430C2D
:100DE8007FEA6C5C02D152EA033C02D14FF000006A
:100DF80070474FF0010070474FEA410212F50012A8
:100E080015D211D56FF47873B3EB625212D94FEA49
:100E1800C12343F0004343EA505311F0004F23FA33
:100E280002F018BF404270474FF00000704750EA88
:100E3800013005D111F0004008BF6FF00040704745
:100E48004FF00000704700BF08B51D4B1B6883B307
:100E580059719A714AB103699B78934205D0184B2E
:100E68001968006800F01DFD08BD802919D007D851
:100E780001290DD002291FD1036904221A70EEE757
:100E8800812912D0822917D1036901225A70E6E715
:100E980003699A6812681278002AE0D105221A704C
:100EA800DDE703697F221A70D9E7036902225A70C5
:100EB800D5E76FF00A00D7E74FF0FF30D4E700BF5F
:100EC800D4040020A04B5B68002B2FD09E4B5968A0
:100ED8000B68002B00F0238100239B4A926D002AA7
:100EE80000F01F81984AD26D002A00F01D8100226F
:100EF800002A40F31C81944A126E002A00F02181D6
:100F08008A68002A00F02281CA68002A00F021813C
:100F18000A69002A00F020814A69002A00F01F812E
:100F28008A69002A00F01E81002220E110B5864C53
:100F380004F1080363602021012008F0B5FDA060DA
:100F48000C210E2008F0B0FDA06510210E2008F03D
:100F5800ABFDE0650024002C20DD0C21342008F0D6
:100F6800A3FD794C20667021012008F09DFD2061C9
:100F78001821012008F098FD60611821012008F06F
:100F880093FDA0613C21012008F08EFDE061402125
:100F9800012008F089FD2062002415E07C21012051
:100FA80008F082FD684B03EB8403D860013424B257
:100FB800D1E76021012008F077FDA21D624B03EB09
:100FC8008203D860013424B2032CF2DD00240BE044
:100FD8005821012008F068FD04F10A025A4B03EB7E
:100FE8008203D860013424B2032CF1DD18210120DA
:100FF80008F05AFD544C60642421012008F054FD87
:10100800606600240BE06021012008F04DFD04F12A
:1010180010024D4B03EB82039860013424B2032C79
:10102800F1DD494B59680B68C3B10023464A926DFC
:10103800B2B1454AD26DB2B10022002A16DD424A49
:10104800126EEAB18A68F2B1CA68FAB10A6902B3E3
:101058004A690AB38A6912B3002225E00123E5E749
:1010680001339BB2E5E701339BB2E5E701EB820070
:10107800406810B1013212B2DFE701339BB2F9E7E1
:1010880001339BB2DEE701339BB2DDE701339BB24C
:10109800DCE701339BB2DBE701339BB2DAE70133CC
:1010A8009BB2D9E7013212B2032A08DC901D01EB8A
:1010B800800040680028F5D101339BB2F2E7002296
:1010C80001E0013212B2032A09DC02F10A0001EB45
:1010D800800040680028F4D101339BB2F1E7CA6B65
:1010E80022B1194A526E22B1002207E001339BB2A5
:1010F800F7E701339BB2F7E7013212B2032A08DCA3
:1011080002F1100051F820000028F5D101339BB2FC
:10111800F2E70BB9002010BD6FF00100FBE70123D7
:10112800DBE601339BB2DDE601339BB2DFE601EB80
:101138008200406810B1013212B2D9E601339BB285
:10114800F9E701339BB2DBE6D404002001339BB2FC
:10115800DAE601339BB2DBE601339BB2DCE601330E
:101168009BB2DDE601339BB2DEE6013212B2032AFE
:1011780008DC901D01EB800040680028F5D10133A0
:101188009BB2F2E7002201E0013212B2032A09DC25
:1011980002F10A0001EB800040680028F4D1013315
:1011A8009BB2F1E7CA6B22B10E4A526E22B10022FD
:1011B80007E001339BB2F7E701339BB2F7E701324F
:1011C80012B2032A08DC02F1100051F820000028AE
:1011D800F5D101339BB2F2E70BB9002070476FF0ED
:1011E80001007047D404002070B584B005460E464F
:1011F800094C63681B6800229A7400F08FFA6368D0
:101208001868A26DE16D02960E230193009129469C
:1012180000F088FA04B070BDD40400202DE9F04F26
:101228008BB043B2002B40F3948106460024002C77
:1012380005DD002F3ED038460BB0BDE8F08F002CFE
:1012480030D0A64A63001819810008461144D1F825
:101258008C100244D2F89020A14B5F6807EB8403FE
:101268005868A5B205F590539BB204B3D7F804C0EB
:101278009B4CD4F860E03F6805F10804A4B20894D8
:101288000797069405970496CDF80CE03424029449
:10129800944C0194CDF800C001F02AFE07466C1C5E
:1012A80024B2C4E706F5C06106F5B062D4E74FF092
:1012B800000CDDE78A4B5B689868D9685A681D6836
:1012C800B4B204F18007884B089702270797069560
:1012D8000597049508250395A3F51A750295A3F5B6
:1012E8001C7501950A25009500F06EFB074600283D
:1012F800A1D17B4B5B681869D9681B6804F5E06469
:1013080005940D2204920393002202920192009305
:101318004FF4FA73324600F0E9FE074600288AD1F6
:101328006F4C6368186800210191022300930B46F3
:101338000A4600F097FA206064686069A1686268EC
:101348002369664D2F6BD5F834C095F880E0246882
:1013580001250695059404950394CDF808E0CDF889
:1013680004C0009702F0D6FE074600287FF463AF5A
:101378005B4B5C68A069A16862682369574DAF6DD3
:101388002468032505950494039502940024019488
:10139800009702F067FF074600287FF44CAF032C44
:1013A80046DC4F4B5D68D5F800901FFA84F808F1C9
:1013B800040E1FFA8EFEA31D05EB83035868A96867
:1013C8006A686B692D69009504F1020C4FEA0C2CD0
:1013D8001FFA8CFC04EB4407BD00D035DFF8FCA0F5
:1013E8005544043504EBC404A70007F5807454443D
:1013F800043408F5A057BFB208F5B05A1FFA8AFAA4
:10140800CDF824E0CDF82090CDF81CA006970594DF
:10141800049500240394CDF808C0019601F02CFB34
:10142800074600287FF407AF08F1010424B2B6E7A5
:10143800002401E0013424B2032C57DC284BD3F8F4
:10144800048004F10A0308EB83035868D8F80810ED
:10145800D8F80420D8F814B0D8F810E04FEA042CD3
:101468001FFA8CFC0CF5C07C1FFA8CFC04EB84077B
:10147800BD0005F5C875DFF864904D44043504EBEC
:10148800C40A4FEA8A0707F5F0774F440437A4B235
:1014980004F5C0591FFA89F904F5D05A1FFA8AFAD7
:1014A800D8F80030089304F104081FFA88F8CDF83A
:1014B8002480CDF81CA0CDF8189005970495002538
:1014C8000395CDF808C00196CDF800E05B4601F021
:1014D80043FB07460028ADD0ADE600BF080000205A
:1014E800D404002038B60008800200201B4C636832
:1014F800D86B99685A68646E1B680D25039502932A
:10150800012301930094164B00F0B6FC074600280F
:101518007FF491AE0024032C3FF78DAE0F4B5B6830
:1015280004F1100253F82200596804F109050D4A24
:1015380002EB05121B68A4B204F10905ADB20295CD
:1015480001930095043202F0F5FC28B9013424B265
:10155800E1E76FF00B076EE607466CE6D40400205F
:101568006C0000200800002010B500F0D7F8354BBB
:101578005B68186800F040F9002409E0314B5B68AB
:1015880004F1100253F8220008F0C8FA013424B21A
:10159800032CF3DD2B4C606E08F0C0FA6368D86B3F
:1015A80008F0BCFA002409E0264B5B68A21D03EB97
:1015B8008203586808F0B2FA013424B2032CF3DD30
:1015C80000240AE01F4B5B6804F10A0203EB820364
:1015D800586808F0A3FA013424B2032CF2DD194C40
:1015E8006368586908F09AFA6368986908F096FA87
:1015F8006368186908F092FA6368D86808F08EFA88
:101608006368986808F08AFA206E08F087FA002460
:10161800002C0DDD0B4CE06D08F080FAA06D08F091
:101628007DFA6368186808F079FA0023636010BDD2
:10163800044B5B6803EB8403586808F06FFA0134C5
:1016480024B2E5E7D4040020F8B505460F4616464F
:10165800FFF738FC044608B12046F8BD3146284655
:10166800FFF7C2FD044648B93846FFF7D7FD0446E0
:101678000028F1D02846FFF777FFEDE72846FFF767
:1016880073FFE9E72DE9F04184B005460E46904620
:1016980003691B787F2B2DD0052B2DD00027002424
:1016A80064B31D4CB4F8603006EB86014A0092B270
:1016B800CDF800803946E86800F0B6FAB4F868203A
:1016C800D4F87432217ACDF80880813401940091DD
:1016D8003146286900F048FD044632463946E86B31
:1016E80000F03AFC3146A86902F030FE204604B00A
:1016F800BDE8F0810127D2E70127D0E705EB840395
:101708005868CDF800804FF47A733246394601F0B4
:10171800FFFD0134E4B2C3E708000020704701234D
:1017280083747047F8B50C46069FBDF81CC060B3BB
:10173800054651B34AB347B3296042600381C76085
:10174800A0F810C0002181740120E874297568751B
:10175800E982A961E9610CE001EB4100860090197A
:10176800002595534FF6FF76468045608560013128
:1017780089B29942F0D3002305E007EB0312002158
:10178800517301339BB26345F7D31A4B236000238F
:1017980063604FF48072A260E36023746374A3747F
:1017A800AA2262610122A2610421E161032121626E
:1017B8006262A262E26222636363A3634FF0807392
:1017C800E363204603F0F2FD50B9204603F0D8FE4B
:1017D80048B900228921204603F0EAFF30B9F8BD54
:1017E80007F0F4FDF1E707F0F1FDF2E707F0EEFD91
:1017F800F5E700BF0064004010B50468204603F018
:101808001BFF204603F0D3FE28B90121204604F02F
:1018180052F818B910BD07F0D9FDF6E707F0D6FD64
:10182800F8E70088704770B49DF80C5038B104464A
:10183800049820B1059810B12089884203D84FF048
:10184800FF3070BC7047646801EB410188002118C3
:10185800049E4E60059E8E600DB9C2F30A022252A4
:101868004B80EEE7C8B110B40446008A884216D906
:10187800E46809016018C2F30A02625013B142F029
:10188800804262509DF804300371002343739DF831
:10189800083083735DF8044B7047002070470020C0
:1018A800F8E700B58BB00B68C3F30A020192002277
:1018B80002925B0803F0005303930B79082B0FD8AF
:1018C8001B040493059206920792089209924A1DF6
:1018D80001A9006803F0C4FE28B90BB05DF804FB49
:1018E8004FF0FF30F9E76FF00E00F6E7704738B5B4
:1018F800837C8BB10D684368008938B11A886A40C7
:101908005C88224209D00C330138F6E700221AB16C
:101918009A680AB15868904738BD0122F7E7000075
:1019280010B4016843681C78C27D5AB1497A827D37
:101938001AB18A4204D8002009E01970002006E094
:10194800064804E0837D2BB934B9002048725DF85D
:10195800044B70470248FAE70248F8E724000008F9
:101968000200010630000906E0B130B585B0054631
:10197800C26EAAB10C4605310DF10E0001F027FA2E
:1019880004F1090102A801F027FAED6E2046FFF7DD
:1019980048FF237AE279BDF80E10029C0094A8470C
:1019A80005B030BD704738B504460568406801F099
:1019B800E0F9E37D0BB9002038BD2978014460685F
:1019C80001F0E7F9F7E700002DE9F04184B09DF850
:1019D80028E0DDF82CC00C9E109F00286AD0054630
:1019E80000296AD0002A6BD0002B6CD0BEF1050FFD
:1019F8006CD9BCF1000F6CD0002E6DD0002F6ED0CA
:101A08000E9800286ED02B6085F804E005F1550388
:101A1800AB656B1DEB652B66002485F8644085F883
:101A28006540AC66EC66CD60C1F800C04E609DF8BC
:101A380034300B724C724C8106E02B684FF0000C6E
:101A480003F804C00134E4B27445F6D390460C465A
:101A58000026019600960B46244A41F203014046AF
:101A680001F019FA0196009608F16003204A41F244
:101A78001401404601F00FFA1E4B0293019500969F
:101A88004FF4F0638022BDF83C100E98FFF7CBFEB0
:101A98002761FD610196082300933346BDF848206D
:101AA800BDF844103846FFF7DDFE6061304604B0EB
:101AB800BDE8F0814FF0FF30F9E74FF0FF30F6E76F
:101AC8004FF0FF30F3E74FF0FF30F0E74FF0FF3013
:101AD800EDE74FF0FF30EAE74FF0FF30E7E74FF070
:101AE800FF30E4E74FF0FF30E1E700BF29190008B5
:101AF800AF1900087119000830B585B00093ADF82A
:101B0800062001F0070201239340A8B1CC08DBB2FC
:101B180002460079A0420DD91568285D18420BD1FC
:101B280009B103432B5592F864303BB1022382F884
:101B3800643001E082F8651005B030BD15460C46EA
:101B48000DF1060102A801F042F900238DF80A30D0
:101B58008DF80B40694603A801F03EF908220DEB09
:101B68000201E86D01F0ECF8EB6D0833EB65AA6D46
:101B7800934208D0EA6D2B6E9A4207D0AB6E002BC9
:101B8800DAD09847D8E76B1DEB65F3E7012385F8B2
:101B98006430F3E770B584B0019201F007020123C5
:101BA8009340A8B1CC08DDB202460079A0420DD915
:101BB8001668305D28420BD020EA0303335592F8AB
:101BC80064303BB1022382F8643001E082F865108A
:101BD80004B070BD144600238DF808308DF8093024
:101BE8008DF80A308DF80B1001A903A801F0F4F85C
:101BF80008220DEB0201E06D01F0A2F8E36D083355
:101C0800E365A26D934208D0E26D236E9A4207D035
:101C1800A36E002BDCD09847DAE7631DE365F3E792
:101C2800012384F86430F3E72DE9F04182B00546DA
:101C38000F4690461E46C4680069FFF757FE94F8A1
:101C480065305BB92068417901B1012183780BB90E
:101C5800C3780BB141F0100106230BE04FF4C242E8
:101C680028212046FFF748FF002384F86530E9E77C
:101C78000133DBB222799A4205D9C25C002AF7D037
:101C880041F08001F4E72A68137803F06E031943E2
:101C980011706B89B34202D29844A5F80A80B7B193
:101CA8006B695B7B9BB9236EE26D934212D06A89A4
:101CB800B24214D206F10903304E86FB03239B0877
:101CC800089A22B112889A4201D9089A138002B060
:101CD800BDE8F08194F86420002AE8D1F7E72A6883
:101CE80012789A7068690822216E053001F028F888
:101CF8000422216E0DEB020001F022F8236E083356
:101D08002366A26D934218D000236B8194F8643047
:101D1800022B15D0002284F8642020212046FFF7EA
:101D280039FF6B682BB36B7A2A7A934201D201335D
:101D38006B726B7A013BDBB216E0631D2366E3E747
:101D4800002384F864304FF4805220212046FFF7A6
:101D5800D3FEE6E7696803F18042013A51F8222090
:101D680041F82320013BDBB2002BF3D16B68019AC9
:101D78001A6069692869FFF794FD9BE767666666DC
:101D8800CA0801F0070301219940C9B2034650B1BE
:101D98000079904209D91B689B5C0B4201D0012055
:101DA80070470020704700207047002070470000EF
:101DB80070B584B0047B8C4214D9856801EBC104EA
:101DC800A600AC19AA55E38000256570A5702AB154
:101DD80023B102F5E0620123A37001E00022E28052
:101DE800A3780BB904B070BD838A8468264419446B
:101DF8000069054B029301960023009340F2FF739C
:101E080089B2FFF710FDEDE7151E00080B79012BCD
:101E180000D070474B794370BFF35B8F0123836019
:101E2800F7E7F8B520B3064603B3CAB9002730462A
:101E3800FFF7BEFF3846F8BD0134E4B2307BA0425C
:101E480011D9706850F82450C5F30740ADB28C42E0
:101E5800F2D0002DF0D08242EED14FF0FF37EBE701
:101E680000242746EAE7002FE1D0E3E70027DEE772
:101E78004FF0FF37DEE70000F0B583B0089C0A9FFB
:101E8800002834D00546002934D0002A35D0002B4C
:101E980036D0002C37D0002F38D01646016043606A
:101EA80084609DF824300373002444730761BDF8EF
:101EB8002C3083820BE06B6853F8242093B2C2F372
:101EC800074221462846FFF7ACFF0134E4B22B7BDA
:101ED800A342F0D80024019400942B460D4A41F205
:101EE8001601304600F0D7FF204603B0F0BD4FF092
:101EF800FF30FAE74FF0FF30F7E74FF0FF30F4E735
:101F08004FF0FF30F1E74FF0FF30EEE74FF0FF30D2
:101F1800EBE700BF211F000838B5C37D0BB10020D7
:101F280038BD04460568406800F023FFC0F3074247
:101F380083B2C00DC00550B9A17D0139C9B2284688
:101F4800FFF76FFF08B90020EAE70248E8E7014811
:101F5800E6E700BF430004062DE9F047064684681B
:101F6800002961D1002369E0A378022B05D0E3683A
:101F78001BB122692946207898470223A3704FF0A5
:101F88000009A4F80490BFF35B8F0023A360A38823
:101F9800E288934201D24B44A380A378012B05D950
:101FA800A3889A421DD96378002B31D06378052B1A
:101FB80000D0002724340135EDB2337BAB424ED933
:101FC800E388002BF6D0A368002BE0D06378002BC1
:101FD800CAD1E369002BD6D0226A294620789847CF
:101FE800D1E72B4648F230121B213068FFF784FDF9
:101FF80000236370A378032B05D063691BB1A26922
:102008002946207898470323A3704FF0010ACDE7AB
:102018002B4648F230121C213068FFF76DFD4FF057
:10202800010884F80280C1E7914605274FF00008AF
:10203800C2464546C1E724340133DBB2327B9A42BB
:102048000AD900226270BFF35B8FA260A278002ACF
:10205800F1D00122A270EEE70027B846BA46BAF1DD
:10206800000F05D0B8F1000F08D07773BDE8F087EE
:1020780000221B213068FFF78DFDF3E700221C21A9
:102088003068FFF787FDF0E708B58A790B79022BEE
:1020980000D008BD12B183789342FAD14B79027807
:1020A800802B1DD00DD8012B12D0022B01D1042377
:1020B80003700369002BECD000789042E9D0984770
:1020C800E7E7812B0FD0822BF3D101234370F0E790
:1020D80083681B681B78002BEBD105230370E8E7A6
:1020E8007F230370E5E702234370E2E7F0B585B08C
:1020F8000A9E0D9F50B3044659B36EB37FB30025B3
:1021080005708270C38045704FF6FF7383808160CD
:102118000561144B02930190009540F2FF73BDF8DE
:102128003020BDF82C103046FFF77DFBE7600195A5
:10213800012300932B46BDF83C20BDF838103846E3
:10214800FFF790FB6061284605B0F0BD4FF0FF3007
:10215800FAE74FF0FF30F7E74FF0FF30F4E74FF0C2
:10216800FF30F1E7912000082DE9F843044698462E
:102178009DF82070099D06788388194489B281806A
:1021880091460AB1914200D2A6B90023A38063699F
:102198005E716169E068FFF784FB237853B9E388CF
:1021A8004B4519D2A9EB0303A380B8F1080F16D049
:1021B8007F232370B9F1000F17D00A9BABB1A38816
:1021C8004B450FD2A9EB03039BB20A9A12889A4295
:1021D8000BD90A9A138008E00023A380E5E70523BA
:1021E8002370E7E700230A9A1380A3680721D868B9
:1021F800FFF7C6FD68B1012215B12378052B12D06F
:1022080023691BB12078B04200D098476078BDE8B8
:10221800F883A3680621D868FFF7B2FD08B9002241
:10222800EAE70122E8E72AB1AB780BB1022B01D12A
:1022380047F01007002FE3D017F0100F03D06B788A
:10224800CBB97F23237017F0010F04D0EB78002B54
:1022580035D17F23237017F0200F03D02B799BBB38
:102268007F23237017F0800F33D12378052BC7D035
:10227800A4F80490C4E7022B02D104232370E2E7F8
:10228800A3681221D868FFF77BFD20B12B788BB9A2
:102298007F232370D7E7A3681B21D868FFF770FD59
:1022A8000028F3D1A3681C21D868FFF769FD00282E
:1022B800C9D0EBE7022BC6D104232370C3E7022B56
:1022C800C9D104232370C6E7022BCBD10423237082
:1022D800C8E76B7913B97F232370C6E7022BC4D1F3
:1022E80004232370C1E7437F1BB143691B78052B87
:1022F80000D070470A79C37F9A42FAD383681BB12A
:10230800827F0AB11B7FE3B94B7980F848308B791B
:1023180080F84930CB7980F84A300B7A80F84B3016
:102328004B7A80F84C308B7A80F84D30CB7A80F835
:102338004E300B7B80F84F30BFF35B8F0123036473
:10234800D7E74B7980F850308B7980F85130CB79CA
:1023580080F852300B7A80F853304B7A80F854303A
:102368008B7A80F85530CB7A80F856300B7B80F822
:102378005730BFF35B8F0123436470472DE9F84F53
:102388000A9EC1F30727CCB214F0070F7CD14FEA9D
:10239800114CE40835782544EDB23570082D76D80F
:1023A800BCF1070F23D817BBBCF1010F0ED9BCF144
:1023B800020F0AD0BCF1050F0FD0BCF1030F0ED0ED
:1023C800BCF1060F0DD0042700E00127A74260D317
:1023D8004AB9374A1A60002057E00127F6E7022772
:1023E800F4E70227F2E7334A1A6000204DE09846E6
:1023F80015468246614600F01FFD81464FF6FF7381
:10240800984248D0DAF82C3000EB40018A00134497
:102418009B78BB4241D33A460146504600F01DFE28
:102428005FFA80FB1DB90BF01803182B37D11DB1CB
:102438000BF02403242B34D13A464946504600F089
:10244800E1FDC0B284422ED84FEADB120C9B1A7011
:102458003A464946504600F02DFEC8F800001BF0E9
:10246800400F22D033781C1B09E0012303FA04F241
:102478000B9B1B7813430B9A1370013424B23378E7
:102488009C42F2DB002000E00B48BDE8F88F0B48C7
:10249800FBE70948F9E70A48F7E70948F5E7064876
:1024A800F3E70548F1E70448EFE70020EDE700BF50
:1024B8003C050020400500204100040642000406B7
:1024C800000002062DE9F04389B005464FF00008E8
:1024D8008DF81F80036904330E4620E000238DF831
:1024E8001F304B464FF402421A212868FFF704FBBD
:1024F8009DF81F30EB77404609B0BDE8F083069A97
:10250800511C069103F1080145F8212001331BB243
:102518009DF81F209342F2DB013E36B23B46002E67
:10252800E6DD00228DF816209DF81F401F1DD3F808
:1025380000900DF1170302930DF1160301930DF1AD
:102548001F03009306AB49466868FFF717FF8046EC
:102558000028C3D123B2DBE710B586B00468C37D79
:102568004BB14268837D002B3CD1E37F002B3CD1EB
:102578000020107037E0237F13F0080F37D162690D
:102588001278052A0CD0637F002B32D1837D63B982
:102598004368197808292ED82046FFF793FF22E0D0
:1025A80013F0020FEFD015481DE0406800F0E1FB82
:1025B80000238DF811308DF81230E37F0BB11048ED
:1025C80011E064680DF1130302930DF112030193F6
:1025D8000DF11103009305AB002201462046FFF7D9
:1025E800CDFE00E0002006B010BD0020FBE7054846
:1025F800F9E70348F7E70448F5E700BF22000008B9
:102608000000010602000106420004062DE9F0431D
:1026180089B0054600278DF81F700369043380F8D8
:1026280040700E46B94620E000238DF81F303B4627
:102638004FF402421A212868FFF75EFA9DF81F300E
:10264800AB77484609B0BDE8F083069A511C06915D
:1026580003F1080145F8212001331BB29DF81F2022
:102668009342F2DB013E36B24346002EE6DD9DF88A
:102678001F4003F104081F6805F140030DF117021C
:10268800029201930DF11F03009306AB0122394614
:102698006868FFF773FE81460028C5D123B2DDE7DD
:1026A80010B586B00468C37D4BB14268837D002BAA
:1026B8003CD1A37F002B3CD10020107037E0237F52
:1026C80013F0080F37D162691278052A0CD0637F9E
:1026D800002B32D1837D63B94368197808292ED835
:1026E8002046FFF793FF22E013F0020FEFD01548C2
:1026F8001DE0406800F03DFB00238DF811308DF897
:102708001230A37F0BB1104811E064680DF1130378
:1027180002930DF1120301930DF11103009305AB20
:10272800012201462046FFF729FE00E0002006B0FE
:1027380010BD0020FBE70548F9E70348F7E7044820
:10274800F5E700BF220000080000010602000106AC
:102758004200040610B584B004461C4B0B40A3B9D4
:102768008AB2C37F8BB182B1438B934209D00123D4
:102778006377E3681B7AF02B8CBF00230123A377D0
:102788000BE0037E1A4492B2F1E700226277BFF3AE
:102798005B8F2264BFF35B8F6264B4F85C100C4BF0
:1027A800029301940023009340F2FF73A06DFFF79A
:1027B8003AF808B904B010BD00236377BFF35B8F04
:1027C8002364BFF35B8F6364F4E700BF00F8FFBFC7
:1027D800EF22000870B504460568C37DD3B1837D38
:1027E800012B01D0002070BD406800F0C2FA0146FC
:1027F80082B26B8B9A4208D06B7F0BB941F00041D3
:10280800606800F0C6FA0020EDE7002BF4D02B7EBC
:102818001944F1E72B7F13F0040F47D16A69127846
:10282800052A06D0A37D012B08D0022B2AD0002030
:10283800D9E713F0010FF5D02148D4E7606800F01C
:1028480098FA06461F4B0340002B31D182B2698BA0
:102858002B7E0B449A420DD06B7F2BB1EB685B68E3
:10286800734033F0404325D131462846FFF772FFC5
:102878000020B8E700F040460E443146606800F09A
:1028880088FAE9E76368A97F1B7803F10F02D2B2DF
:102898000C2A11D9F02B8CBF00230123AB778B4274
:1028A8000CD0BFF35B8F002068649CE706489AE76A
:1028B800064898E7054896E7044894E7002092E719
:1028C800220000080080FF3F0200010630000906D0
:1028D80010B582B00446134B0B406BB988B2A37F86
:1028E80053B148B1638B834202D00123637705E07B
:1028F800237E184480B2F8E700206077B4F85410BB
:10290800003218BF01220192A37F009300230246E0
:10291800E06CFEF7A7FF206508B102B010BD0023E8
:102928006377FAE700F8FFBF70B50568837D042B6D
:1029380000F08A800446C27DCAB1012B01D0002074
:1029480070BD406800F015FA014682B26B8B9A425E
:1029580008D06B7F0BB941F00041606800F019FAAC
:102968000020EDE7002BF4D02B7E1944F1E72A7FF5
:1029780012F0040F6AD16969097805290BD0012B77
:102988000ED0022B35D0032B45D0052B48D0062B73
:1029980050D00020D4E712F0010FF0D03148CFE733
:1029A800606800F0E6F906462F4B0340002B4FD134
:1029B80082B2698B2B7E0B449A4212D06B7F2BB16B
:1029C800EB685B68734033F0404343D12B6D9A7BCF
:1029D80031462846FFF77CFFFF2385F84130002069
:1029E800AEE700F040460E443146606800F0D1F989
:1029F800E4E763681B7803F10F02D2B20C2A2BD9E3
:102A08002A6DF02B8CBF002301239373FF2385F8D5
:102A18004130002094E76B7F03BB002068648FE798
:102A2800606800F09BF94FF47A7303FB00F3AB6422
:102A3800002085E762686B7F93B91378F02B01D883
:102A480000207DE709487BE7094879E7094877E7E7
:102A5800064875E7054873E7044871E703486FE7D8
:102A680002486DE7220000080080FF3F3000090699
:102A780011000906020001062DE9F04383B00A9D02
:102A88000E9FDDF83C80DDF8489000284BD00446C6
:102A980000294BD0002A4CD0002D4DD0002F4ED00D
:102AA800B8F1000F4ED0B9F1000F4ED016460160B4
:102AB80062608360C760C0F8108045619DF82C3063
:102AC8000376BDF8303043839DF834300377002512
:102AD8000195009503461E4ABDF84010304600F0A7
:102AE800DAF90195009523461A4ABDF84410304694
:102AF80000F0D1F9BFF35B8F2564BFF35B8F65648A
:102B0800C4F85890BDF84C30A4F85C3098F8001020
:102B18002046FFF7D7FC79682046FFF71BFE2846BA
:102B280003B0BDE8F0834FF0FF30F9E74FF0FF3016
:102B3800F6E74FF0FF30F3E74FF0FF30F0E74FF0E4
:102B4800FF30EDE74FF0FF30EAE74FF0FF30E7E7FF
:102B5800DD270008612500082DE9F04383B00A9FAE
:102B68000E9DDDF83C80DDF84890002862D00446D0
:102B7800002962D0002A63D0002F64D0002D65D0D0
:102B8800B8F1000F65D0B9F1000F65D016460160A5
:102B980062608360C560C0F8108047619DF82C3082
:102BA8000376BDF8303043839DF83430037700272F
:102BB8000197009703462B4ABDF84010304600F0B5
:102BC8006AF9019700972346274ABDF84410304612
:102BD80000F061F9C4F84C90BDF84C30A4F85430BA
:102BE800FF2384F841306764EA894FF47A7303FB62
:102BF80002F3A3642B7AFD2B01D90123E37798F81C
:102C080000102046FFF702FD2A7AF02A8CBF002226
:102C1800012269682046FFF75BFE2B7A0F33DBB28F
:102C28000C2B02D92B7CF02B19D90020607703B02C
:102C3800BDE8F0834FF0FF30F9E74FF0FF30F6E7DB
:102C48004FF0FF30F3E74FF0FF30F0E74FF0FF3081
:102C5800EDE74FF0FF30EAE74FF0FF30E7E70020FD
:102C6800E5E700BF31290008A926000838B50B7927
:102C7800082B00D038BDC36E002BFBD190F8613013
:102C8800152B16D14B79037003F07F030022A0F8AF
:102C9800642090F86220541CA34226D09A421CD08B
:102CA800DAB1162380F86130BFF35B8F0123C36666
:102CB80013E04B7903708B794370CB7983700B7A6F
:102CC800C3704B7A03718B7A4371CB7A83710B7B18
:102CD800C371BFF35B8F0123C366C36E002BC9D0DA
:102CE800036F002BC6D09847C4E780F862400123E1
:102CF800072B13D8046C028F551C0587CD186D79E6
:102D0800A554028F1F2A02D80133DBB2F0E716233D
:102D180080F86130BFF35B8F0123C36690F9003000
:102D2800002B05DB90F8622090F866309A42D4D3E5
:102D3800162380F86130BFF35B8F0123C366CCE7AD
:102D48000023934209D210B4CC5CC45401339BB223
:102D58009342F9D35DF8044B7047704782B003780B
:102D68008DF8003043788DF80130BDF8000002B0CE
:102D7800704782B003788DF8003043788DF80130C1
:102D880083788DF80230C3788DF80330009802B04C
:102D980070470170C1F307234370C1F30743837081
:102DA800C1F30761C170704770B50446066845688D
:102DB8002846FFF7DEFFE37D0BB1A37D0BB90020AA
:102DC80070BD317801442846FFF7E3FFF7E70B7839
:102DD80003704B78437070470B7803704B784370DF
:102DE8008B788370CB78C370704710B582B0044677
:102DF80002AB43F8041D826F80215171B0F8501066
:102E0800826F9171B0F85020816F120ACA71826F77
:102E180090F852101172806F19460930FFF7DCFFE5
:102E2800002384F86130BFF35B8FE366A16F606FA6
:102E3800FEF737FD02B010BDF0B4028E013A92B22F
:102E4800002601E001339EB2964212D2B31803EB7A
:102E5800D373C3F34F03C76A03EB4305AC003C5B72
:102E68008C4215D0EED913B15A1E92B2ECE71A462D
:102E7800EAE70BD1C06A06EB46029300C35A8B42BD
:102E880001D1334604E04FF6FF7301E04FF6FF73BC
:102E98001846F0BC7047F8B5074616461D469DF81B
:102EA8001C40FFF7C9FF4FF6FF73984213D0D7F8BD
:102EB80034C000EB400083000CEB0301FA6A1A44AB
:102EC80092784CF803604D60069B13B10CB1A24296
:102ED80002D000238B60F8BD8B60002304E0886873
:102EE8000024C45401339BB290B29842F7D2F2E75F
:102EF8002DE9F04385B0894619460C9BBDF838602A
:102F0800139F002871D090460446119A002A6FD06A
:102F1800002F70D0002B3BD0002280F82820DA6ADE
:102F2800C2621A8E02865B6B43639DF8403084F858
:102F38006030002384F86130BFF35B8FE36623675A
:102F4800B1F5905F40D0B9F1000F46DBB8F1000F42
:102F580047DB2A4B029301940026009640F2FF7348
:102F68001FFA89F2BDF848101198FEF75CFC6767F4
:102F780001960823009333461FFA88F2BDF85010D3
:102F88003846FEF76FFCA067304605B0BDE8F08311
:102F9800012380F828300D9BC36206860F9B43638C
:102FA80000230EE0606B03EB430C4FEA8C02002514
:102FB8008550606B10444560606B02449560013336
:102FC8009BB2B342EED3B0E70193009304F16003E0
:102FD8000B4A2046FFF75FFFB5E74FF00008C146F0
:102FE800B7E74FF00008C146B3E74FF0FF30CCE732
:102FF8004FF0FF30C9E74FF0FF30C6E7752C0008E7
:10300800B12D000810B4C36A01EB4104A0000344C9
:103018004FF6FF70814214D0997819B99A68A2B115
:10302800D8880FE0998821B18AB19A688AB1D8887E
:1030380008E09B6803EBC20153F832305BB1C888E3
:1030480000E000205DF8044B70472020FAE70120DB
:10305800F8E72020F6E72020F4E730B4C56A01EB52
:1030680041008300EC184FF6FF70814220D0A17810
:1030780079B1A088B8B1E95A41F2030399420BD05B
:1030880000233AB933B920F0180080B240F00400A8
:1030980000E0A08830BC70471AB940F0080001234E
:1030A800EFE70023EDE7A36803EBC2029088F1E79E
:1030B8000020EFE710B4C36A01EB4104A000034409
:1030C8004FF6FF70814217D0997859B1914215D3C4
:1030D800998869B152B1986890B1013ADB8803FBCD
:1030E800020000E098685DF8044B7047981CFAE706
:1030F8009B6853F83200F6E70020F4E70020F2E777
:103108000020F0E74FF6FF7399420BD0436B5BB199
:1031180010B401EB41018C002344986810445DF819
:10312800044B704700207047002070472DE9F0419C
:1031380004461646A0F8501080F85220FFF77CFE8F
:1031480060874FF6FF73984247D00546E36A00EB65
:10315800400297003B449A78B24203D29B680BB175
:103168001F4834E0324629462046FFF7A3FF804631
:1031780060640023E363636B13B11F447B68E363FC
:1031880004F108032364324629462046FFF73AFF34
:103198000746A4F84800324629462046FFF75DFF57
:1031A800A4F84A00324629462046FFF7ABFFE06400
:1031B800012384F8543084F85530B8F1000F08D052
:1031C8003B46A3650023E365202F04D80020BDE813
:1031D800F0810023F5E70348F9E70348F7E700BF64
:1031E800110009064700040600000206F8B5056C40
:1031F800446CB0F84820B0F84A3013F0040F2DD0D2
:10320800466B26B1438F03EB43039F003E4444B90A
:10321800336853B9154B22E022782A701A460134D4
:103228000135531E9BB2002AF6D10D4604460123F0
:1032380080F85330336843B13C309847034670B93F
:10324800B4F848306BB1AB420DD8B4F84820E36D00
:103258001344E365002384F8543000E0044B184617
:10326800F8BD024BFBE7014BF9E700BF4700040636
:1032780001000106F8B5076C456CB0F84A3013F048
:10328800080F3AD004460E463DB3B0F848308B429A
:1032980036D1002384F85330626B52B1638F03EB4D
:1032A80043039900535823B104F13C00984703465F
:1032B80020BBB4F84820E36D1344E365002384F889
:1032C8005430236D23F07F4341F20302934207D029
:1032D8000023BDB15BB1002310E0A4F84810D8E783
:1032E8000123F6E73A782A70013501371E46731E26
:1032F8009BB2002EF6D1002300E0034B1846F8BD20
:10330800024BFBE70023F9E702000106100007065D
:103318002DE9F04182B004460D4617461E4690F846
:1033280061301BB9C26E002A00F01185002D4ED005
:10333800A26F517B002940F08E80E16E00294FD0AA
:1033480094F800804FEA5818262B02D00023A4F8DE
:10335800643000231372A26FD371A26F9371A26FAE
:103368005371A26F1373A26FD372A26F9372A26F7D
:103378005372E36E13B12378802B35D094F8613003
:10338800002B69D108F1FF33DBB2012B05D9B8F165
:10339800060F02D0B8F1050F2FD1A1786378E27833
:1033A80043EA01212046FFF7C1FE014660BBB8F1A0
:1033B800010F02D0B8F1060F35D1B4F84A3013F036
:1033C800080F27D0B8F1010F2BD0142344E00020B8
:1033D80084F86100BFF35B8FE06602B0BDE8F0815E
:1033E800262BADD0002337E0002384F86130BFF3EB
:1033F8005B8FE3664FF0FF30EFE7A3492046FFF706
:10340800F4FC4FF0FF30E8E72046FFF7EEFC4FF002
:10341800FF30E2E79D492046FFF7E7FC4FF0FF3019
:10342800DBE7112318E020212046FFF7DFFE0146E5
:1034380020B9B8F1050F07D021230DE02046FFF78A
:10344800D4FC4FF0FF30C8E7B4F8482063799A42BB
:1034580046D8212300E00023B4F86420B24202D207
:103468003A44A4F86420B4F86420B24241D394F8F2
:103478006130152B36D194F862309BB3A36F5B7B18
:1034880083BB2A461623272B00F24584DFE813F076
:103498004B044304430443044304430443044304E4
:1034A80043044304430443044304430443044304DC
:1034B800430436008B00430408014B044C01B1015E
:1034C80043044304430443044304430443044304BC
:1034D8004304F40134024304CF02220333033204C9
:1034E8002423B9E76A492046FFF77FFC4FF0FF30F5
:1034F80073E7002B00F02E840022C4E7A36F60223C
:103508005A71A36F62789A71A36FA278DA71A36F68
:10351800E2781A72237813F0020F25D013F0010F06
:1035280019D0C3F38101C1F1040189B2236C227956
:103538001A70236C62795A70236CA2799A70236C82
:10354800E279DA702046FFF795FE014630B900238C
:1035580084F86130E8E3B4F84810E7E72046FFF75D
:1035680044FC4FF0FF3038E713F0010F07D1002378
:10357800238784F86230122384F86130D4E3211D54
:1035880001A8FFF729FC019BA365B4F848209342E2
:10359800EDD0636C002BEAD03E492046FFF725FCAE
:1035A8004FF0FF3019E7267816F0E00F20D1C6F368
:1035B800001394F862209A4221D16FEA560606F069
:1035C8000706218F7218B4F848309A420EDD636CF2
:1035D800E3B9002384F855302046FFF74BFE014637
:1035E800D8B92023A4F8483000232387002322E0F9
:1035F80025492046FFF7F9FB4FF0FF30EDE6264955
:103608002046FFF7F2FB4FF0FF30E6E6234920465D
:10361800FFF7EBFB4FF0FF30DFE62046FFF7E5FB57
:103628004FF0FF30D9E60133216C228F501C2087E0
:10363800E05C88549BB2B342F5D3237813F0010FB2
:103648000DD194F86230EBB13022A36F5A7194F81F
:103658006230B3FA83F35B0984F8623064E30123D0
:1036680084F85530218F2046FFF704FE014618B92B
:10367800002384F86130E4E72046FFF7B6FB4FF0FB
:10368800FF30AAE62022E0E7010004050200010657
:1036980000000405100007060000030512000706D5
:1036A800237803F0E103C02B23D1A36FA4225A711E
:1036B800A36F62789A71A36FA278DA71A36FE27828
:1036C8001A72042384F86630A26F53722378C3F306
:1036D800800284F867200022A4F8682013F0020F03
:1036E8000ED10023238784F86230152384F86130D3
:1036F8001AE3AF492046FFF778FB4FF0FF306CE63E
:10370800211D01A8FFF768FB019BA365B4F84820B9
:103718009342E6D0636C002BE3D0A6492046FFF71E
:1037280064FB4FF0FF3058E62AB994F90030002BBB
:103738001FDB002600E00026A36FA2225A71A36FA8
:1037480094F862209A71002384F86230636C93B114
:10375800238FC3F120039BB240F2793293422FD8D2
:10376800954AA2FB03129B1A02EB5303C3F3870388
:1037780027E00126E0E7218F0029E9D0002EE7D1D4
:1037880094F8673073B9002384F85530218F2046A8
:10379800FFF770FD014668B92023A4F848300023DC
:1037A8002387D5E7B4F86820206C00F021FEA4F840
:1037B8006800E8E72046FFF718FB4FF0FF300CE6FB
:1037C8007F2384F86630A26FD37126B1172384F85B
:1037D80061303546A8E2238F1F2B03D8152384F8C0
:1037E8006130A1E275492046FFF7FFFA4FF0FF303C
:1037F800F3E5217801F0E103C12B29D1C1F382035C
:10380800218FC91A89B2218794F8673083B1B4F837
:103818006820206C00F0ECFDA4F86800611C01A889
:10382800FFF7D5FAB4F86820BDF804309A4216D1EB
:10383800012384F85530218F2046FFF71BFD0146F0
:10384800A0B9A36FA1225A71002384F861306BE2FA
:1038580057492046FFF7C9FA4FF0FF30BDE55849F0
:103868002046FFF7C2FA4FF0FF30B6E52046FFF7D3
:10387800BCFA4FF0FF30B0E5A36F62789A71A36F7E
:10388800A278DA71A36FE2781A72B4F84830042B80
:1038980025D90023238784F86230222384F86130F5
:1038A800A36DF3B9A36F40225A713DE2216CA26F58
:1038B800181DC95C0244517101339BB2B4F8482009
:1038C8009A42F3D8C2F10403DBB29B00DBB2A26FC9
:1038D80043F043035371002384F8613024E200234A
:1038E800ECE702A941F8043DA06F0930FFF774FA2C
:1038F800A36F41225A7117E2237803F0E002602A8D
:1039080011D1C3F3001394F862209A4212D1B4F88B
:103918004860238FF61AB6B2072E00D90726636CC3
:103928007BB100235AE022492046FFF75EFA4FF0A8
:10393800FF3052E523492046FFF757FA4FF0FF3092
:103948004BE5062EEDD894F85530002BE9D106E06A
:10395800216C228F1A448A5CCA5401339BB29E425E
:10396800F6D8236C3344236494F85220618F2046A0
:10397800FFF748FB801BA4F8480020212046FFF7EA
:1039880035FC014670B9236C9B1B2364B4F848309E
:103998001E44B6B2A4F8486000232387072EC0D976
:1039A8000726BEE72046FFF720FA4FF0FF3014E560
:1039B8000100040510000706254992244700040663
:1039C8000400040500000305206C218F4A1C22878F
:1039D800A26F0133415C1A4451719BB29E42F3D8E5
:1039E80094F862300BB31023C6F10706A26F43EABE
:1039F8004606567194F86230B3FA83F35B0984F88B
:103A08006230228FB4F848309A4240F08D8194F8A1
:103A18005530002B00F08881A26F537943F00103E1
:103A28005371002384F861307EE10023DCE7A36F43
:103A380062789A71A36FA278DA71A36FE2781A722A
:103A4800237813F0040F20D1002384F86730A4F8FA
:103A58006830237984F86630227812F0030F20D179
:103A68005AB2002A24DDC3EBC303B4F848209342BA
:103A780002D994F85530DBB1A36D03BBA36FC42200
:103A88005A71252384F861304EE1012384F86730A8
:103A98000022B4F84810206C00F0AAFCA4F86800D2
:103AA800D7E7B2492046FFF7A0F94FF0FF3094E47A
:103AB800AF492046FFF799F94FF0FF308DE402A98E
:103AC80041F8043DA06F0930FFF786F9A36FC622BD
:103AD8005A71D6E7237803F0E303A32B25D10023FB
:103AE800238784F8623084F86B30BFF35B8FE3661A
:103AF800262384F86130E36E002B6BD0237803F023
:103B0800E303A22B18D1617894F862308B421AD360
:103B180094F86B301BB194F866308B421AD0C1EB25
:103B2800C1018DB22B46002232E090492046FFF7B2
:103B38005CF94FF0FF3050E48C492046FFF755F907
:103B48004FF0FF3049E48B492046FFF74EF94FF01C
:103B5800FF3042E494F86A30C3F107039B00A26F78
:103B680063F03E03537194F867301BB9272384F838
:103B78006130D9E0A06F04F168010630FFF727F93A
:103B8800F4E7216CC85C885401339BB2013292B2CD
:103B9800B4F848109942F4D8491B8DB2A4F848509B
:103BA800A37884F86630626C62B394F86630C3EB2D
:103BB800C303B4F84820934203D994F85530002B36
:103BC80057D00023238784F8623084F86B30BFF322
:103BD8005B8FE36694F8622094F866309A4200F0AE
:103BE800BC8094F86B30002B40F0BA80A4F86430A5
:103BF800B4F84850238FED1AADB2072D00D9072528
:103C0800002348E0C3EBC3039D42CED294F855305D
:103C1800002BCAD1236C2B44236494F85220618F63
:103C28002046FFF7EFF9401BA4F848002021204662
:103C3800FFF7DCFA014658B994F867307BB9236C72
:103C48005B1B2364B4F848301D44A4F84850ACE723
:103C58002046FFF7CAF84FF0FF30FFF7BEBBB4F8B5
:103C68006820B4F84810206C00F0C2FBA4F8680083
:103C7800E5E73F492046FFF7B8F84FF0FF30FFF778
:103C8800ACBB206C218F4A1C2287A26F0133415C98
:103C98001A4451719BB29D42F3D894F862300133B3
:103CA800DBB284F86230A26F5371228FB4F84830C7
:103CB8009A420CD0A16F606FFDF7F3FD089B002BB3
:103CC80051D00023089A13800120FFF786BB94F88F
:103CD8005530002BEED0A26F537963F07F035371F8
:103CE80084F86A5094F8623084F86630012384F8C6
:103CF8006B30DFE7237803F0E103A12B03D1002524
:103D080084F8615010E019492046FFF76EF84FF02B
:103D1800FF30FFF762BB18492046FFF766F84FF0FF
:103D2800FF30FFF75ABB0025BFF35B8F0023E36624
:103D38002DB994F861303BB90020FFF74EBBA16F55
:103D4800606FFDF7AEFDF4E70120FFF746BB0020EA
:103D5800FFF743BB0020FFF740BB0120FFF73DBB47
:103D68000120FFF73ABB0120FFF737BB010004052C
:103D780002000405030004054700040638B50B7962
:103D8800082B00D038BD436B002BFBD1037A002BE6
:103D9800F8D0CA2B16D14B7980F8383003F07F035E
:103DA80000228284C28490F85120541CA3422DD052
:103DB8009A4223D012B3CB230372BFF35B8F012344
:103DC80043631BE04B7980F838308B7980F83930C1
:103DD800CB7980F83A300B7A80F83B304B7A80F810
:103DE8003C308B7A80F83D30CB7A80F83E300B7BC4
:103DF80080F83F30BFF35B8F01234363436B002B95
:103E0800C0D0036C002BBDD09847BBE780F8514069
:103E1800012301E00133DBB2072B10D8C468026A22
:103E2800551C0562CD186D79A554046A026994423F
:103E3800F0D3CB230372BFF35B8F0123436390F965
:103E48003830002B05DB90F8512090F852309A4218
:103E5800D4D3CB230372BFF35B8F01234363CDE736
:103E6800002855D0F0B585B00D46164604462F4AB1
:103E78000A40002A4FD12D4A3240002A4ED113F071
:103E8800800F4ED10272BFF35B8F426391420ADB0F
:103E9800964234DB002B37D001B146B903F5C06533
:103EA80003F5B06603E000234FF00046354622686C
:103EB80055602268966022681373A36DAB4202D1E5
:103EC800E36DB34230D0218EE06A194B029301941E
:103ED8000027009740F2FF73B2B2FDF7A4FCB4F8D4
:103EE8004C10606C0197082300933B46AAB2FDF77B
:103EF800B9FCA064A565E665384605B0F0BD0023A9
:103F08004FF000463546D2E74FF000463546CEE73B
:103F18006FF0010070476FF00100EEE76FF00100ED
:103F2800EBE76FF00100E8E70020E6E700F8FF7F25
:103F3800853D000870B5059E48B3044651B362B389
:103F4800107803282CD173B386B320461446002575
:103F58000572BFF35B8F4563152280F84F207F22DF
:103F680080F85020416004600564C362BDF81030D9
:103F780003864664BDF81830A0F84C308565C565E1
:103F8800237BA2686168FFF76BFF284670BD4FF07E
:103F9800FF30FBE74FF0FF30F8E74FF0FF30F5E771
:103FA8004FF0FF30F2E74FF0FF30EFE74FF0FF3010
:103FB800ECE743681B78052B01D07F2B18D1037DD4
:103FC80053B90B791BB143F4807383840AE0BFF3C0
:103FD8005B8F0123836105E00B79012B09D043F442
:103FE8000073838483691BB1037F83F00103037724
:103FF80070474B794377BFF35B8F01238361F1E708
:1040080030B583B0056843681B78C27DA2B9EA68F9
:10401800AAB9012B15D0F02B15D82B7503B10123A4
:104028006A89298F286B0024019400932346FDF7A1
:1040380019FC6863204600E0002003B030BD034847
:10404800FBE70348F9E70248F7E700BF220000084A
:104058003000090638B5044605684068FEF789FE51
:10406800E37D7BB9EB680BB900B16B77E860430877
:1040780003EB43032B61834202D24FF0FF332B61E2
:1040880000232B62002038BD30B585B00446056892
:104098004068FEF76EFEE37D7BBB10F0005F2FD11A
:1040A80010F0804F03D02B7A63BB012300E000237C
:1040B800C0F30A026A81EBB12C7D1CB1002169773B
:1040C80029621C46298F286B002301930094FDF771
:1040D800C9FB686301232B726A89A98DA86A0A4BF8
:1040E800029301950024009440F2FF73FDF79BFBB7
:1040F800204603E000232B72EEE7002005B030BD18
:104108000248FBE70248F9E7BB3F00083000090610
:10411800220000082DE9F04F85B00E9DDDF83CC067
:104128009DF84060119FBDF848A0DDF84C80BDF8AF
:104138005090002867D00446002967D0002A68D02C
:10414800002B69D0002F6AD0B8F1000F6AD0C5F3F0
:1041580080702072C5F30A056581C4F80CC04FEA67
:104168005C0000EB40002061604502D24FF0FF3058
:104178002061267506B10126934601226275BFF3B8
:104188005B8F0025A561257725626577A584216069
:104198006360A762A4F82CA0019500952346234AE2
:1041A80041F205015846FEF776FE01950095234633
:1041B8001F4A41F206015846FEF76DFE019500952B
:1041C80023461C4A41F219015846FEF764FE6289EB
:1041D800194B02930194009540F2FF7351463846FB
:1041E800FDF721FBC4F83080A4F838906289019566
:1041F80000962B4649464046FDF734FB6063284647
:1042080005B0BDE8F08F4FF0FF30F9E74FF0FF3011
:10421800F6E74FF0FF30F3E74FF0FF30F0E74FF0ED
:10422800FF30EDE74FF0FF30EAE700BF91400008AC
:104238005D40000809400008BB3F000808B5436816
:104248001B78052B04D07F2B02D00B79838308BD04
:10425800BFF35B8F012343610A7905313830FEF7DC
:104268006FFDF4E72DE9F04184B00A9DDDF82C805C
:10427800DDF830C0BDF834E00E9EBDF83C70002873
:104288004FD0044600294FD0002A50D0002B51D0DF
:10429800BCF1000F51D0002E52D0EA0F0272C5F3C4
:1042A80080724272C5F30A054581C0F80C804FEA56
:1042B800580202EB42020261424502D24FF0FF323D
:1042C8000261BFF35B8F00226261A261A283216059
:1042D8006360C4F820C0A4F824E0237A3BB9A6623E
:1042E800A785637A83B9002004B0BDE8F0816289AC
:1042F800154B029301940023009340F2FF7371461B
:104308006046FDF790FAEAE76289002501950623E1
:1043180000932B4639463046FDF7A4FA2063284619
:10432800E2E74FF0FF30DFE74FF0FF30DCE74FF018
:10433800FF30D9E74FF0FF30D6E74FF0FF30D3E733
:104348004FF0FF30D0E700BF4542000838B50446BB
:1043580043681B78052B01D07F2B37D1A3691944FB
:104368008B4200D2A1616369FBB10023A361BFF353
:104378005B8F63610125637A23B1E36813B1A26996
:10438800934214D9237A2BB3E3681BB3A369226938
:1043980093421FD962681278052A1BD14FF4014253
:1043A80009212068FDF7A8FB14E00025E3E70023B6
:1043B800A361206B062204F138010530FEF7C0FC2A
:1043C800216BA06AFDF76DFA0125DBE7BFF35B8F70
:1043D80000254561A38B0BB9284638BD48F26022F9
:1043E8000A212068FDF788FB0023A383F4E7000077
:1043F80000238B420FD230B4C45C84EA1224120228
:1044080092B2064D35F81440624001338B42F3D323
:10441800104630BC70471046704700BFE8BC000823
:10442800104B1B680BB90120704710B504464FF4B8
:104438007A70B0FBF3F30C4A1068B0FBF3F000F0AD
:104448006BFD68B90F2C01D901200AE00022214632
:104458004FF0FF3000F00CFD024B5C60002000E0E4
:10446800012010BDDC020020E402002010B503206A
:1044780000F0ECFC0020FFF7D3FF10B10124204628
:1044880010BD044604F0A4FFF9E70000034A1368CE
:10449800034909680B441360704700BF5C0500209E
:1044A800DC020020014B1868704700BF5C05002043
:1044B80030B583B000230193002800F049810446F9
:1044C800C36D03B323689A6812F0005F05D09A6839
:1044D80022F0204222F03F029A602268936813F08B
:1044E800805F1DD1936823F0104323F03F0343F00E
:1044F80080539360974B1B689B09974AA2FB032341
:104508009B09019309E004F083FF0023236684F8E4
:104518005830D7E7019B013B0193019B002BF9D150
:1045280023689A6812F0805F40D1E26D42F0100271
:10453800E265226E42F00102226601209A6812F0BA
:10454800040F35D00121E26D12F0100F40F0F98010
:10455800002940F0F680E26D22F4817242F00202F6
:10456800E2659A6812F0010F43D1B3F1A04F21D050
:104578007A4A93421ED07A4A926812F0010F00F0EC
:10458800A3800121774A926812F0010F00F09E8003
:1045980001220A437449896811F0010F00F09880DC
:1045A80001210A430CBF0122002214E00020C5E7C4
:1045B8000021C8E74FF0A042926812F0010F7FD0A7
:1045C8000121664A926812F0010F7BD001220A434A
:1045D8000CBF0122002262B1B3F1A04F7CD05F4A28
:1045E800934277D0614963688A6822F47C12134346
:1045F8008B60627FE36B43EA4233E2681343A2684D
:10460800134394F8242043EA0243012A66D0E26A5D
:1046180022B102F47872216B0A4313432168CD68F2
:10462800534A2A401343CB602268136923F040633E
:10463800616B0B43136123689A6812F0040F52D020
:1046480001219A6812F0080F4FD0012249BB42BBE2
:10465800217F94F83820520042EA8131DA6822F446
:10466800804222F002020A43DA602369002B3ED01E
:104678002268136943F4803313612268D2F8C0308A
:1046880023F47F5323F03F0321690B43C2F8C03062
:1046980094F84030012B39D02268136923F00103C4
:1046A80013616369012B43D02268136B23F00F0356
:1046B8001363E36D23F0030343F00103E36545E06F
:1046C80000217EE7002282E700215BE7002260E705
:1046D800002166E7274986E7264984E7A26A013A66
:1046E80043EA424393E70021ABE70022AEE72268A2
:1046F800136923F4803313612268D2F8C03023F49D
:104708007F5323F03F03C2F8C030C1E721680B692B
:1047180023F4FF6323F00403626CA56C2A43E56C61
:104728002A43256D2A43134343F001030B61B8E77D
:1047380021680B6B23F00F03226A013A13430B63C2
:10474800B7E7E36D43F01003E365012003B030BD24
:104758000120FBE7E4020020632D3E050001005024
:1047680000040050000500500006005000070050EB
:104778000740F0FF00030050F0B482B0002201921D
:1047880090F85820012A00F05B820346012280F845
:1047980058200668B06810F0040F0AD0DA6D42F0AD
:1047A8002002DA650120002283F8582002B0F0BC0C
:1047B80070474D680C6830362A0A920002F00C02E5
:1047C800B05805F01F051F27AF4020EA0700C4F3C3
:1047D8008464AC402043B0501A68906810F0040F0D
:1047E80000F099800120946814F0080F00F095807B
:1047F800012500284FD1002D4DD18C68B4F1004F10
:1048080000F08D800F681432780E800000F00400EC
:104818001658C7F304574FF0070C0CFA07FC26EAA2
:104828000C06BC40344314501868426922F0004218
:1048380042614A691C68E068C0F3C100400002FA9E
:1048480000F00E69042E00F08280603454F826705F
:10485800BC4A3A400F6807F0F8473843024342F031
:10486800004244F826201A680E698869603252F8B6
:10487800264024F08074204342F8260018680C690A
:104888000A7F012A60D0603050F8242022F000729C
:104898002A4340F824201868826812F0010F16D1C4
:1048A8000A68CD68D0F8B040C2F3120624EA0604BC
:1048B80005F01806A44DF5402A40C2F3120222431F
:1048C800C0F8B020C868A14A904200F09C800A68ED
:1048D8009F490A4200F0AE811968B1F1A04F00F07B
:1048E80048819C48814200F041819B48806800F0E3
:1048F800E0749A4DAA4200F03E81994DAA4200F018
:104908003A81984DAA4200F06881974DAA4200F07A
:104918007C81002047E7002065E7002569E70C68EF
:104928001432600E800000F004001658C4F30454DA
:10493800072707FA04F426EA0404145018684269A1
:1049480042F00042426174E74FF000759BE7226E27
:10495800206EC0F384600A68C2F3120585BBC2F3F7
:104968008462904231D01C68626E606EC0F38460CD
:104978000A68C2F312056DBBC2F3846290422ED05E
:104988001C68A26EA06EC0F384600A68C2F31205A8
:1049980055BBC2F3846290422BD01C68E26EE06E75
:1049A800C0F384600A68C2F312053DBBC2F3846297
:1049B80090427FF470AFE26E22F00042E2666AE74E
:1049C80092FAA2F2B2FA82F2CBE7226E22F0004209
:1049D8002266C8E792FAA2F2B2FA82F2CEE7626ED3
:1049E80022F000426266CBE792FAA2F2B2FA82F2B1
:1049F800D1E7A26E22F00042A266CEE792FAA2F2B6
:104A0800B2FA82F2D4E71D680A68C2F3120696BBAE
:104A1800900E013000F01F0009288CBF00200120F3
:104A2800002852D09EBB940E0134A40604F0F8442A
:104A3800B6BB900E013000F01F070120B8400443B8
:104A4800C6BB920E013202F01F0202EB42021205AF
:104A580022438C681435500E800000F004002E5854
:104A6800C2F304520727974026EA070604FA02F21F
:104A780032432A502BE792FAA2F0B0FA80F00130C4
:104A880000F01F0009288CBF00200120C8E792FA17
:104A9800A2F4B4FA84F40134A40604F0F844C7E795
:104AA80092FAA2F0B0FA80F0013000F01F0701205E
:104AB800B840C4E792FAA2F2B2FA82F2013202F0E6
:104AC8001F0202EB42021205C2E7CEB9940E01346E
:104AD800A40604F0F844E6B9900E013000F01F0770
:104AE8000120B8400443F6B9900E013000F01F00D1
:104AF80000EB40021E3A120542F000722243A8E77A
:104B080092FAA2F4B4FA84F40134A40604F0F84446
:104B1800E1E792FAA2F0B0FA80F0013000F01F0746
:104B28000120B840DEE792FAA2F0B0FA80F0013036
:104B380000F01F0000EB40021E3A120542F000721E
:104B4800DCE700BF00F0FF03FFFF070000007F4025
:104B5800000008800001005000070050000021C339
:104B68001000C090000052C7000084CB00F5007010
:104B7800BCE63448BAE610F4000F7FF4C2AEB1F1D7
:104B8800A04F04D0304A914201D000200BE6B1F189
:104B9800A04F18D02D4A914213D02D4944F4000457
:104BA8008A6822F0E07214438C602A4A12689209DB
:104BB8002949A1FB0212920902EB420291000191DC
:104BC80006E02049EAE71F49E8E7019A013A01921D
:104BD800019A002AF9D10020E5E510F0807F7FF4E2
:104BE80094AEB1F1A04F0ED0184A914209D018499D
:104BF80044F080748A6822F0E07214438C600020CC
:104C0800D1E51049F4E70F49F2E710F4800F13D10A
:104C18000E4A914212D0B1F1A04F09D00C4844F489
:104C28008002816821F0E0710A4382600020BAE5C1
:104C38000448F4E70020B6E50020B4E50020B2E51A
:104C48000220B3E5000300500006005000010050A8
:104C580000070050E4020020632D3E0590F858201C
:104C6800012A00F0E48030B49CB00346012280F8A9
:104C780058200268B2F1A04F48D06E48824249D00D
:104C880000220192019A002A47D0926812F0040F7C
:104C98004CD001241A68906810F0040F40F0B880D6
:104CA800002C40F0B580B2F1A04F43D06248824258
:104CB8003ED0624A0868002867D0906820F46040B7
:104CC8004C6893F8385044EA45342043906018689B
:104CD800B0F1A04F30D0584CA0422DD05548806834
:104CE80010F0010F4BD001245548806810F0010FD7
:104CF80047D001202043534CA46814F0010F42D040
:104D0800012420430CBF0120002026E002F5807218
:104D18000192B7E74A4A0192B4E7DA6D42F02002FD
:104D2800DA65002283F85820012079E00024B1E7F1
:104D3800454ABFE7444ABDE74FF0A040806810F0FD
:104D4800010F18D001203C4CA46814F0010F14D0B6
:104D5800012420430CBF01200020002863D0906864
:104D680020F4716020F00F000C6889682143084323
:104D78009060002051E00020E5E70024E9E70024E6
:104D8800B2E70020B6E70024BBE7916821F4604150
:104D980091601968B1F1A04F1AD0274CA14217D0E1
:104DA8002449896811F0010F2ED00124244989680B
:104DB80011F0010F2AD001212143224CA46814F0DC
:104DC800010F00D0012001430CBF0121002110E098
:104DD8004FF0A041896811F0010F13D00121164C42
:104DE800A46814F0010F00D0012001430CBF012179
:104DF8000021D1B1916821F4716121F00F01916016
:104E080000200AE00146EAE70446CFE70146D3E777
:104E1800DA6D42F02002DA650120002283F858207A
:104E28001CB030BC70470020F7E70020F5E70220EF
:104E3800704700BF000400500001005000070050F8
:104E4800000500500006005000030050074AD368D0
:104E580023F4E0631B041B0C000200F4E060184319
:104E680040F0BF6040F40030D060704700ED00E0D3
:104E780030B4174BDB68C3F30223C3F10704042CD7
:104E880028BF04241D1D062D18D9033B4FF0FF35FC
:104E980005FA04F421EA0401994005FA03F322EA29
:104EA8000303194300280BDB0901C9B200F1604074
:104EB80000F5614080F8001330BC70470023E5E737
:104EC80000F00F000901C9B2024B1954F4E700BF02
:104ED80000ED00E014ED00E0002807DB00F01F0201
:104EE800400901239340024A42F82030704700BF2E
:104EF80000E100E000280CDB00F01F02400901235C
:104F080093402030034A42F82030BFF34F8FBFF35D
:104F18006F8F704700E100E00138B0F1807F0AD25E
:104F2800064B5860064AF02182F82310002098604A
:104F380007221A6070470120704700BF10E000E0A8
:104F480000ED00E070B4C46C056D6560446D14B18B
:104F5800846DC56D6560446C04F01F05066C012402
:104F6800AC407460046863608368102B05D00368E4
:104F780099600368DA6070BC704703689A600368D8
:104F8800D960F8E703680C4A934213D90B49DBB29E
:104F9800083B0B4AA2FB0323426C22F003020A449B
:104FA8008264084AC264C3F30413012202FA03F3B9
:104FB800036570470449EAE70704024020080240F5
:104FC800CDCCCCCC80080240000802400379074AC7
:104FD8001A4492004265064A8265013B03F01F03AA
:104FE800012202FA03F3C365704700BF3F82001035
:104FF8004009024000285CD010B5044602682E4BD8
:105008009A423ED82D4B13442D4AA2FB03231B0979
:105018009B0043642B4B0364022384F825302168EA
:105028000A6822F4FF4222F07002A368E068034392
:105038002069034360690343A0690343E0690343AC
:10504800206A034313430B602046FFF79BFFA368C6
:10505800B3F5804F20D0A36C22791A60E36C226DDF
:105068005A606368013B032B19D900236365A36564
:10507800E3650020E063012384F8253084F82400E8
:1050880010BD114B13440E4AA2FB03231B099B00BE
:1050980043640E4B0364BFE700236360DBE72046ED
:1050A800FFF794FF636D00221A60A36DE26D5A60EA
:1050B800DFE70120704700BF07040240F8FFFDBF8B
:1050C800CDCCCCCC00000240F8FBFDBF0004024070
:1050D80038B590F82440012C42D0012480F82440AF
:1050E80090F82540E4B2012C04D0002380F8243045
:1050F800022038BD0446022084F825000020E06321
:105108002568286820F0010028602046FFF71AFF6C
:10511800236BD3B12268136843F00E031360A36CAA
:105128001A6812F4803F03D01A6842F480721A6039
:10513800636D1BB11A6842F480721A6022681368A2
:1051480043F0010313600020D3E72268136823F0BB
:10515800040313602268136843F00A031360DEE750
:105168000220C6E708B590F82530DBB2022B09D03B
:105178000423C363012380F82530002280F824200B
:10518800184608BD0268136823F00E03136002680E
:10519800136823F001031360826C136823F480738F
:1051A8001360436C03F01F02016C012393404B60B2
:1051B800C36C026D5A60436D33B11A6822F4807271
:1051C8001A60836DC26D5A60012380F82530002370
:1051D80080F82430836B13B198470020D1E7002072
:1051E800CFE738B5036C196804682568436C03F089
:1051F8001F0304229A400A4215D015F0040F12D05A
:10520800236813F0200F03D1236823F004032360DD
:10521800436C03F01F02016C042393404B60036B43
:1052280003B1984738BD02229A400A421CD015F0B3
:10523800020F19D0236813F0200F06D1236823F03A
:105248000A032360012380F82530436C03F01F0212
:10525800016C022393404B60002380F82430C36A1A
:10526800002BDFD09847DDE7082202FA03F30B4250
:10527800D8D015F0080FD5D0236823F00E0323608B
:10528800436C03F01F03016C012202FA03F34B6025
:10529800C26380F82520002380F82430436B002B5C
:1052A800C0D09847BEE7000010B402681D4B9A4270
:1052B80028D01D491D4B9A4226D00164D2F880306F
:1052C80023F4F813446B43EA0443C2F8803001F135
:1052D800700343640268D2F8803023F07063846BF3
:1052E80043EA0463C2F8803001F1B003836401F536
:1052F800C473C36401F51873036501F51E73436530
:105308000B4607E00A49D5E701F5D461D5E7002245
:1053180043F8042B01F554729A42F8D85DF8044B0F
:10532800704700BF0068004000A40040006C0040C7
:1053380050A70040F0B44C68CCB90E698C6826437D
:105348000C6846EA84460D6ACC6944EA05648D69AE
:105358002C434D692C43CD682C43476D03EBC303A5
:10536800D8003D183E506C600835002015E00E69E5
:105378008C6826430C68264346F08046E3E71418F9
:10538800E678A3781B0443EA0663647843EA0423B7
:10539800145C234345F8043B0430CB89024CE35C9E
:1053A8008342ECD8F0BC7047E8BE0008002800F043
:1053B800E28038B5044690F85C30D3B1226893692E
:1053C80023F010039361FFF76DF8054623689A6987
:1053D80012F0080F12D0FFF765F8401B0A28F5D91C
:1053E800236E43F001032366032384F85C30012015
:1053F80038BD80F85D3004F087F8DFE79A6942F03D
:1054080001029A61FFF74EF8054623689A6912F07F
:10541800010F0DD1FFF746F8401B0A28F5D9236E76
:1054280043F001032366032384F85C300120DFE79F
:105438009A6942F002029A612268504B9A4242D01D
:10544800237C012B44D02268936943F04003936185
:10545800637C012B42D02268936923F480439361D3
:10546800A37C012B40D02268936943F48053936155
:105478002268936923F44073A1680B4393612268FF
:10548800936923F0A40393612268136923F010033E
:105498001361E368012B2DD0002B30D0022B53D0A1
:1054A8002268936943F0800393612268136943F08B
:1054B80010031361E368032B21D12268936943F039
:1054C800200393611BE0626803F580731A60B7E7F5
:1054D8002268936923F040039361B9E722689369CE
:1054E80043F480439361BBE72268936923F48053B4
:1054F8009361BDE72268936943F004039361A3694C
:105508005A1EE369013B1B0243EA4263226A013ADD
:1055180013436269013A216843EA0243CB61A368F5
:10552800B3F5407F16D02268D2F8C030E16B0B4348
:10553800C2F8C0302046FFF7B7FE0020A0652066FD
:10554800012384F85C3053E72268936943F0200311
:105558009361D4E7A36A013BE26A013A43EA022372
:10556800226B013A43EA0213626A013A216843EA6C
:105578000243CB60D7E70120704700BF00640040BA
:1055880090F85C30DBB2012B05D0036E43F00403C6
:10559800036601207047022380F85C300268936933
:1055A80023F001039361002303661846704790F8BF
:1055B8005C30DBB2022B05D0036E43F008030366B0
:1055C800012070470268936943F001039361002347
:1055D8000268916911F0010F0CD10A2B01D801332F
:1055E800F6E7036E43F001030366032380F85C309B
:1055F80001207047936923F0100393610023026828
:10560800916911F0080F0CD00A2B01D80133F6E785
:10561800036E43F001030366032380F85C30012026
:105628007047936943F00203936100238365012265
:1056380080F85C201846704780B110B50446FFF723
:10564800B6FF2268D36D23F00303D365204603F029
:105658009DFF0020206684F85C0010BD0120704783
:1056680038B590F85C30DBB2022B05D0036E43F0FE
:1056780008030366012038BD0368D3F8C44014F456
:10568800001F05D0036E43F4007303660120F2E7A0
:105698000546D3F8C440C4F301442346FFF74AFE45
:1056A8002A680123A340C2F8CC30AB650020E2E7AA
:1056B800F0B490F85C40E4B2022C06D0036E43F0DC
:1056C800080303660120F0BC7047402939D00468FC
:1056D800D4F8985015F00F0F49D0D4F89840C4F377
:1056E800012CC66C0CEBCC05EC003444256805F0A5
:1056F80080455560002D40D12568C5F38A45156061
:10570800256805F000559560256805F00045156188
:10571800A588D561656805F47025D560656805F4C8
:1057280080155561656805F400159561E57905F002
:105738007F0515626568ED0F556204F108050024C0
:1057480023E00468D4F8905015F00F0F09D0D4F86E
:105758009040C4F3012C866C0CEBCC05EC0034446F
:10576800C4E7036E43F4807303660120ABE7036E5E
:1057780043F4807303660120A5E7256825F060459A
:105788001560BDE72E5D1E550134D689074FBE5DF5
:10579800A642F7D8402904D00368C3F89CC000206B
:1057A80091E70368C3F894C000208CE7E8BE0008BE
:1057B80090F85C30013BDBB2012B05D9036E43F056
:1057C800020303660120704770B40468A36D11F0EA
:1057D800070602D013F0010F23D011F0380F02D0C2
:1057E80013F0020F1DD011F4E07F02D013F0040F64
:1057F80017D011F4F05F02D013F0080F11D011F494
:10580800604F02D013F0100F0BD011F4403F02D0BC
:1058180013F0200F05D011F47C0F06D013F0400FC1
:1058280003D1E56D45F00105E56516B113F0010FEB
:1058380023D111F0380F02D013F0020F1DD111F44B
:10584800E07F02D013F0040F17D111F4F05F02D0FB
:1058580013F0080F11D111F4604F02D013F0100F9C
:105868000BD111F4403F02D013F0200F05D111F4F1
:105878007C0F07D013F0400F04D00468E36D43F0A9
:105888000203E36511F0800F05D00468D4F8DC301A
:105898001343C4F8DC3011F4807F05D00468D4F8D1
:1058A800E0301A43C4F8E0200268536D194351658B
:1058B800002070BC704790F85C30013BDBB2012BD4
:1058C80005D9036E43F0020303660120704730B424
:1058D8000268536D23EA0103536511F0800F03D06A
:1058E80003680022C3F8DC2011F4807F03D003682A
:1058F8000022C3F8E02001684B6D8A6D13F007049D
:1059080002D012F0010F27D013F0380F02D012F096
:10591800020F21D013F4E07F02D012F0040F1BD045
:1059280013F4F05F02D012F0080F15D013F4604F93
:1059380002D012F0100F0FD013F4403F02D012F033
:10594800200F09D013F47C0F02D012F0400F03D0BF
:10595800CD6D25F00105CD6514B112F0010F2AD1E6
:1059680013F0380F02D012F0020F27D113F4E07FA2
:1059780002D012F0040F23D113F4F05F02D012F01A
:10598800080F1FD113F4604F02D012F0100F1BD173
:1059980013F4403F02D012F0200F17D113F47C0FFC
:1059A80002D012F0400F13D10268D36D23F0020326
:1059B800D365002000E0002030BC70470020FBE7E2
:1059C8000020F9E70020F7E70020F5E70020F3E7DB
:1059D8000020F1E77047704770477047704770477D
:1059E800704770472DE9F843044603681A6D02F4BE
:1059F800E0595A6D09EA02091A6D02F007085A6D52
:105A080008EA02081F6D07F038075A6D17401D6D28
:105A180005F471055A6D15401E6D06F460265A6D21
:105A280016401A6D12F0400F03D05A6D12F0400F55
:105A380051D123681A6D12F4807F03D05A6D12F485
:105A4800807F4DD1B9F1000F56D1B8F1000F5BD16D
:105A5800002F61D123681A6D12F4007F03D05A6DAC
:105A680012F4007F5FD123681A6D12F0800F03D003
:105A78005A6D12F0800F5DD123681A6D12F4005F21
:105A880003D05A6D12F4005F5FD123681A6D12F4C7
:105A9800004F03D05A6D12F4004F5DD123681A6D80
:105AA80012F4804F0AD05A6D12F4804F06D04FF48A
:105AB80080421A65236E43F080032366002E52D17C
:105AC80025B123681D65236E1D432566236E002BB3
