:020000040800F2
:100000000000022079750008956C0008976C0008C4
:10001000996C00089B6C00089D6C000800000000B3
:100020000000000000000000000000009F6C0008BD
:10003000A16C000800000000A36C0008A56C00087B
:10004000C9750008C9750008C9750008C975000898
:10005000C9750008C9750008C9750008C975000888
:10006000C9750008C9750008C9750008AD6C00089D
:10007000BD6C0008C9750008C9750008C97500087D
:10008000C9750008C9750008C9750008C975000858
:10009000C9750008C9750008C9750008C975000848
:1000A000C9750008C9750008C9750008C975000838
:1000B000C9750008C9750008C9750008C975000828
:1000C000C9750008C9750008C9750008C975000818
:1000D000C9750008C9750008C9750008C975000808
:1000E000C9750008C9750008C9750008C9750008F8
:1000F000C9750008C9750008C9750008C9750008E8
:10010000C9750008C9750008C9750008C9750008D7
:10011000CD6C0008C9750008C9750008C9750008CC
:10012000C9750008C9750008C9750008C9750008B7
:10013000C9750008C9750008C9750008C9750008A7
:10014000C9750008C9750008C9750008C975000897
:10015000C9750008C9750008C9750008C975000887
:10016000C9750008C9750008C9750008C975000877
:10017000C9750008C9750008C9750008C975000867
:10018000C9750008C9750008C9750008C975000857
:10019000C975000800000000C9750008C97500088D
:1001A000C9750008C9750008C9750008C975000837
:1001B000C9750008C9750008C9750008C975000827
:1001C000C9750008C9750008C9750008C975000817
:0801D000C9750008C97500089B
:1001D80010B5054C237833B9044B13B10448AFF379
:1001E80000800123237010BDD4020020000000000D
:1001F8007CA1000808B5034B1BB103490348AFF3C2
:10020800008008BD00000000D80200207CA1000882
:1002180081F0004102E000BF83F0004330B54FEAAF
:1002280041044FEA430594EA050F08BF90EA020F1C
:100238001FBF54EA000C55EA020C7FEA645C7FEAAF
:10024800655C00F0E2804FEA5454D4EB5555B8BFD2
:100258006D420CDD2C4480EA020281EA030382EA43
:10026800000083EA010180EA020281EA0303362DD5
:1002780088BF30BD11F0004F4FEA01314FF4801CA8
:100288004CEA113102D0404261EB410113F0004FBA
:100298004FEA03334CEA133302D0524263EB430371
:1002A80094EA050F00F0A780A4F10104D5F1200E0F
:1002B8000DDB02FA0EFC22FA05F2801841F100016A
:1002C80003FA0EF2801843FA05F359410EE0A5F13E
:1002D80020050EF1200E012A03FA0EFC28BF4CF06F
:1002E800020C43FA05F3C01851EBE37101F0004525
:1002F80007D54FF0000EDCF1000C7EEB00006EEB32
:100308000101B1F5801F1BD3B1F5001F0CD34908BB
:100318005FEA30004FEA3C0C04F101044FEA445212
:1003280012F5800F80F09A80BCF1004F08BF5FEA99
:10033800500C50F1000041EB045141EA050130BD79
:100348005FEA4C0C404141EB010111F4801FA4F11C
:100358000104E9D191F0000F04BF01460020B1FA71
:1003680081F308BF2033A3F10B03B3F120020CDAA9
:100378000C3208DD02F1140CC2F10C0201FA0CF087
:1003880021FA02F10CE002F11402D8BFC2F1200CEC
:1003980001FA02F120FA0CFCDCBF41EA0C019040A2
:1003A800E41AA2BF01EB0451294330BD6FEA0404EB
:1003B8001F3C1CDA0C340EDC04F11404C4F12002D6
:1003C80020FA04F001FA02F340EA030021FA04F3E8
:1003D80045EA030130BDC4F10C04C4F1200220FA3F
:1003E80002F001FA04F340EA0300294630BD21FA7D
:1003F80004F0294630BD94F0000F83F4801306BF43
:1004080081F480110134013D4EE77FEA645C18BF36
:100418007FEA655C29D094EA050F08BF90EA020FCD
:1004280005D054EA000C04BF1946104630BD91EAC5
:10043800030F1EBF0021002030BD5FEA545C05D1C8
:100448004000494128BF41F0004130BD14F5800407
:100458003CBF01F5801130BD01F0004545F0FE417B
:1004680041F470014FF0000030BD7FEA645C1ABFB0
:10047800194610467FEA655C1CBF0B46024650EAE7
:10048800013406BF52EA033591EA030F41F4002113
:1004980030BD00BF90F0000F04BF0021704730B599
:1004A8004FF4806404F132044FF000054FF000016E
:1004B80050E700BF90F0000F04BF0021704730B52F
:1004C8004FF4806404F1320410F0004548BF404204
:1004D8004FF000013EE700BF42004FEAE2014FEA59
:1004E80031014FEA02701FBF12F07F4393F07F4F34
:1004F80081F06051704732F07F4208BF704793F037
:100508007F4F04BF41F40021704730B54FF4607449
:1005180001F0004521F000411CE700BF50EA01024C
:1005280008BF704730B54FF000050AE050EA0102F5
:1005380008BF704730B511F0004502D5404261EB65
:1005480041014FF4806404F132045FEA915C3FF4A6
:10055800D8AE4FF003025FEADC0C18BF03325FEA43
:10056800DC0C18BF033202EBDC02C2F1200300FAF4
:1005780003FC20FA02F001FA03FE40EA0E0021FA19
:1005880002F11444BDE600BF70B54FF0FF0C4CF407
:10059800E06C1CEA11541DBF1CEA135594EA0C0FB9
:1005A80095EA0C0F00F0DEF82C4481EA030621EAF4
:1005B8004C5123EA4C5350EA013518BF52EA03352F
:1005C80041F4801143F4801338D0A0FB02CE4FF0E1
:1005D8000005E1FB02E506F00042E0FB03E54FF011
:1005E8000006E1FB03569CF0000F18BF4EF0010E09
:1005F800A4F1FF04B6F5007F64F5407404D25FEA05
:100608004E0E6D4146EB060642EAC62141EA5551B7
:100618004FEAC52040EA5E504FEACE2EB4F1FD0CF9
:1006280088BFBCF5E06F1ED8BEF1004F08BF5FEA77
:10063800500E50F1000041EB045170BD06F0004629
:1006480046EA010140EA020081EA0301B4EB5C04D6
:10065800C2BFD4EB0C0541EA045170BD41F48011CE
:100668004FF0000E013C00F3AB8014F1360FDEBFF3
:10067800002001F0004170BDC4F10004203C35DACF
:100688000C341BDC04F11404C4F1200500FA05F352
:1006980020FA04F001FA05F240EA020001F00042F3
:1006A80021F0004110EBD37021FA04F642EB060169
:1006B8005EEA430E08BF20EAD37070BDC4F10C0493
:1006C800C4F1200500FA04F320FA05F001FA04F257
:1006D80040EA020001F0004110EBD37041F1000143
:1006E8005EEA430E08BF20EAD37070BDC4F120054E
:1006F80000FA05F24EEA020E20FA04F301FA05F2B6
:1007080043EA020321FA04F001F0004121FA04F25D
:1007180020EA020000EBD3705EEA430E08BF20EA2D
:10072800D37070BD94F0000F0FD101F00046400067
:1007380041EB010111F4801F08BF013CF7D041EAE9
:10074800060195F0000F18BF704703F000465200ED
:1007580043EB030313F4801F08BF013DF7D043EABE
:100768000603704794EA0C0F0CEA135518BF95EA74
:100778000C0F0CD050EA410618BF52EA4306D1D1FB
:1007880081EA030101F000414FF0000070BD50EA1A
:10079800410606BF1046194652EA430619D094EAA4
:1007A8000C0F02D150EA013613D195EA0C0F05D18E
:1007B80052EA03361CBF104619460AD181EA0301E2
:1007C80001F0004141F0FE4141F470014FF000009A
:1007D80070BD41F0FE4141F4780170BD70B54FF035
:1007E800FF0C4CF4E06C1CEA11541DBF1CEA1355B5
:1007F80094EA0C0F95EA0C0F00F0A7F8A4EB050497
:1008080081EA030E52EA03354FEA013100F088808D
:100818004FEA03334FF0805545EA131343EA126356
:100828004FEA022245EA111545EA10654FEA00260B
:100838000EF000419D4208BF964244F1FD0404F5C4
:10084800407402D25B084FEA3202B61A65EB030520
:100858005B084FEA32024FF480104FF4002CB6EBDD
:10086800020E75EB030E22BFB61A754640EA0C005D
:100878005B084FEA3202B6EB020E75EB030E22BF9D
:10088800B61A754640EA5C005B084FEA3202B6EBDE
:10089800020E75EB030E22BFB61A754640EA9C009D
:1008A8005B084FEA3202B6EB020E75EB030E22BF6D
:1008B800B61A754640EADC0055EA060E18D04FEA2B
:1008C800051545EA16754FEA06164FEAC30343EACB
:1008D80052734FEAC2025FEA1C1CC0D111F4801F98
:1008E8000BD141EA00014FF000004FF0004CB6E791
:1008F80011F4801F04BF01430020B4F1FD0C88BF30
:10090800BCF5E06F3FF6AFAEB5EB030C04BFB6EB3A
:10091800020C5FEA500C50F1000041EB045170BD2D
:100928000EF0004E4EEA113114EB5C04C2BFD4EB5A
:100938000C0541EA045170BD41F480114FF0000EDE
:10094800013C90E645EA060E8DE60CEA135594EA5A
:100958000C0F08BF95EA0C0F3FF43BAF94EA0C0F5D
:100968000AD150EA01347FF434AF95EA0C0F7FF4D2
:1009780025AF104619462CE795EA0C0F06D152EA26
:1009880003353FF4FDAE1046194622E750EA41060A
:1009980018BF52EA43067FF4C5AE50EA41047FF41B
:1009A8000DAF52EA43057FF4EBAE12E74FF0FF3C80
:1009B80006E000BF4FF0010C02E000BF4FF0010C51
:1009C8004DF804CD4FEA410C7FEA6C5C4FEA430CCA
:1009D80018BF7FEA6C5C1BD001B050EA410C0CBF19
:1009E80052EA430C91EA030F02BF90EA020F00207B
:1009F800704710F1000F91EA030F58BF994208BFE2
:100A080090422CBFD8176FEAE37040F0010070479E
:100A18004FEA410C7FEA6C5C02D150EA013C07D1F5
:100A28004FEA430C7FEA6C5CD6D152EA033CD3D040
:100A38005DF8040B704700BF8446104662468C463A
:100A48001946634600E000BF01B5FFF7B7FF00286D
:100A580048BF10F1000F01BD4DF808EDFFF7F4FF96
:100A68000CBF012000205DF808FB00BF4DF808ED21
:100A7800FFF7EAFF34BF012000205DF808FB00BF44
:100A88004DF808EDFFF7E0FF94BF012000205DF866
:100A980008FB00BF4DF808EDFFF7CEFF94BF01201B
:100AA80000205DF808FB00BF4DF808EDFFF7C4FF14
:100AB80034BF012000205DF808FB00BF4FEA410267
:100AC800B2F1E04324BFB3F5001CDCF1FE5C0DD9A4
:100AD80001F0004C4FEAC0024CEA5070B2F1004FEE
:100AE80040EB830008BF20F00100704711F0804FF1
:100AF80021D113F13872BCBF01F00040704741F4B6
:100B080080114FEA5252C2F11802C2F1200C10FAB9
:100B18000CF320FA02F018BF40F001004FEAC1239D
:100B28004FEAD32303FA0CFC40EA0C0023FA02F341
:100B38004FEA4303CCE77FEA625307D150EA013317
:100B48001EBF4FF0FE4040F44000704701F00040E7
:100B580040F0FE4040F40000704700BF53B94AB966
:100B6800002908BF00281CBF4FF0FF314FF0FF30AD
:100B780000F072B9ADF1080C6DE904CE00F006F88A
:100B8800DDF804E0DDE9022304B070472DE9F04701
:100B9800089E04468846002B4BD18A42154667D9E1
:100BA800B2FA82F24AB1C2F1200701FA02F320FA3E
:100BB80007F7954047EA030894404FEA154E230C7F
:100BC800B8FBFEF71FFA85FC0EFB178843EA0843BB
:100BD80007FB0CF1994209D9EB1807F1FF3080F0B7
:100BE8001B81994240F21881023F2B445B1AA4B240
:100BF800B3FBFEF00EFB103344EA034400FB0CFC8D
:100C0800A44509D92C1900F1FF3380F00781A445C8
:100C180040F2048102382C4440EA0740A4EB0C045B
:100C280000271EB1D4400023C6E900433946BDE879
:100C3800F0878B4209D9002E00F0EB800027C6E927
:100C4800000138463946BDE8F087B3FA83F7002F2C
:100C580047D18B4202D3824200F2FA80841A61EBB8
:100C6800030301209846002EE0D0C6E90048DDE7DE
:100C780002B9FFDEB2FA82F2002A40F08F80491BE7
:100C88004FEA154E1FFA85F80127B1FBFEFC230C2D
:100C98000EFB1C1143EA014308FB0CF1994207D9EA
:100CA800EB180CF1FF3002D2994200F2CD80844655
:100CB800591AA3B2B1FBFEF00EFB101443EA044428
:100CC80008FB00F8A04507D92C1900F1FF3302D220
:100CD800A04500F2B6801846A4EB080440EA0C4090
:100CE8009FE7C7F1200CBB4022FA0CFE4EEA030E28
:100CF80001FA07F420FA0CF521FA0CF34FEA1E4822
:100D08002543B3FBF8F92C0C08FB19331FFA8EFAAC
:100D180044EA034309FB0AF49C4202FA07F200FA88
:100D280007F10BD91EEB030309F1FF3080F0878030
:100D38009C4240F28480A9F1020973441B1BADB2A6
:100D4800B3FBF8F008FB103345EA034400FB0AFA4A
:100D5800A24508D91EEB040400F1FF336BD2A2456B
:100D680069D90238744440EA0940A0FB0289A4EB1F
:100D78000A044C45C2464B4654D351D0002E69D084
:100D8800B1EB0A0564EB030404FA0CFCFD40FC40DB
:100D98004CEA0505C6E90054002747E7C2F12003DD
:100DA80020FA03F7954001FA02F021FA03F34FEA1B
:100DB800154E3843010CB3FBFEF71FFA85F80EFBFE
:100DC800173341EA034107FB08F38B4204FA02F4A4
:100DD80007D9691807F1FF3C2FD28B422DD9023F62
:100DE8002944CB1A81B2B3FBFEF00EFB103341EA63
:100DF800034100FB08F38B4207D9691800F1FF3C57
:100E080017D28B4215D902382944C91A40EA074734
:100E18003BE73746304609E70746E7E61846FBE66C
:100E28004145ABD2B8EB020A69EB0E020138134612
:100E3800A4E76046E9E7184695E76746D1E78146A3
:100E48007CE702382C4447E7ACF1020C2B442FE72F
:100E5800384608E73746E9E6704700BF034613F807
:100E6800012B002AFBD1181A013870474FEA410CB0
:100E78007FEA6C5C02D150EA013C0AD14FEA430C8C
:100E88007FEA6C5C02D152EA033C02D14FF00000C9
:100E980070474FF0010070474FEA410212F5001207
:100EA80015D211D56FF47873B3EB625212D94FEAA9
:100EB800C12343F0004343EA505311F0004F23FA93
:100EC80002F018BF404270474FF00000704750EAE8
:100ED800013005D111F0004008BF6FF000407047A5
:100EE8004FF00000704700BF104B1B680BB9012082
:100EF800704710B504464FF47A70B0FBF3F30C4A10
:100F08001068B0FBF3F000F0D1FE68B90F2C01D9DE
:100F180001200AE0002221464FF0FF3000F084FE55
:100F2800024B5C60002000E0012010BD00000020A2
:100F3800FC00002010B5032000F064FE0020FFF73D
:100F4800D3FF10B10124204610BD044605F07CFCF7
:100F5800F9E70000034A1368034909680B44136062
:100F6800704700BF3003002000000020014B1868C4
:100F7800704700BF3003002030B583B000230193D1
:100F8800002800F049810446C36D03B323689A68BA
:100F980012F0005F05D09A6822F0204222F03F024A
:100FA8009A602268936813F0805F1DD1936823F0DC
:100FB800104323F03F0343F080539360974B1B6823
:100FC8009B09974AA2FB03239B09019309E005F0BB
:100FD8005BFC0023236684F85830D7E7019B013B6C
:100FE8000193019B002BF9D123689A6812F0805F66
:100FF80040D1E26D42F01002E265226E42F0010239
:10100800226601209A6812F0040F35D00121E26DA2
:1010180012F0100F40F0F980002940F0F680E26DE0
:1010280022F4817242F00202E2659A6812F0010F1E
:1010380043D1B3F1A04F21D07A4A93421ED07A4AC5
:10104800926812F0010F00F0A3800121774A92689C
:1010580012F0010F00F09E8001220A43744989684A
:1010680011F0010F00F0988001210A430CBF012202
:10107800002214E00020C5E70021C8E74FF0A04295
:10108800926812F0010F7FD00121664A926812F02F
:10109800010F7BD001220A430CBF0122002262B15A
:1010A800B3F1A04F7CD05F4A934277D0614963681F
:1010B8008A6822F47C1213438B60627FE36B43EAF5
:1010C8004233E2681343A268134394F8242043EAA6
:1010D8000243012A66D0E26A22B102F47872216BD7
:1010E8000A4313432168CD68534A2A401343CB600F
:1010F8002268136923F04063616B0B431361236813
:101108009A6812F0040F52D001219A6812F0080F61
:101118004FD0012249BB42BB217F94F838205200AE
:1011280042EA8131DA6822F4804222F002020A435C
:10113800DA602369002B3ED02268136943F48033B8
:1011480013612268D2F8C03023F47F5323F03F03A1
:1011580021690B43C2F8C03094F84030012B39D0D4
:101168002268136923F0010313616369012B43D0DB
:101178002268136B23F00F031363E36D23F003035B
:1011880043F00103E36545E000217EE7002282E7A2
:1011980000215BE7002260E7002166E7274986E730
:1011A800264984E7A26A013A43EA424393E70021C9
:1011B800ABE70022AEE72268136923F4803313619A
:1011C8002268D2F8C03023F47F5323F03F03C2F8DB
:1011D800C030C1E721680B6923F4FF6323F00403DF
:1011E800626CA56C2A43E56C2A43256D2A43134398
:1011F80043F001030B61B8E721680B6B23F00F0381
:10120800226A013A13430B63B7E7E36D43F0100317
:10121800E365012003B030BD0120FBE7FC0000209E
:10122800632D3E05000100500004005000050050E9
:1012380000060050000700500740F0FF0003005070
:10124800F0B482B00022019290F85820012A00F0F0
:101258005B820346012280F858200668B06810F0C7
:10126800040F0AD0DA6D42F02002DA65012000226C
:1012780083F8582002B0F0BC70474D680C683036CF
:101288002A0A920002F00C02B05805F01F051F2729
:10129800AF4020EA0700C4F38464AC402043B05058
:1012A8001A68906810F0040F00F099800120946883
:1012B80014F0080F00F09580012500284FD1002D6B
:1012C8004DD18C68B4F1004F00F08D800F68143256
:1012D800780E800000F004001658C7F304574FF04A
:1012E800070C0CFA07FC26EA0C06BC4034431450E1
:1012F8001868426922F0004242614A691C68E06845
:10130800C0F3C100400002FA00F00E69042E00F09C
:101318008280603454F82670BC4A3A400F6807F05F
:10132800F8473843024342F0004244F826201A683E
:101338000E698869603252F8264024F08074204390
:1013480042F8260018680C690A7F012A60D06030CC
:1013580050F8242022F000722A4340F8242018680C
:10136800826812F0010F16D10A68CD68D0F8B04033
:10137800C2F3120624EA060405F01806A44DF54047
:101388002A40C2F312022243C0F8B020C868A14A1A
:10139800904200F09C800A689F490A4200F0AE81A2
:1013A8001968B1F1A04F00F048819C48814200F0D3
:1013B80041819B48806800F0E0749A4DAA4200F091
:1013C8003E81994DAA4200F03A81984DAA4200F018
:1013D8006881974DAA4200F07C81002047E70020F1
:1013E80065E7002569E70C681432600E800000F09C
:1013F80004001658C4F30454072707FA04F426EA2D
:10140800040414501868426942F00042426174E7CB
:101418004FF000759BE7226E206EC0F384600A6867
:10142800C2F3120585BBC2F38462904231D01C68B6
:10143800626E606EC0F384600A68C2F312056DBB09
:10144800C2F3846290422ED01C68A26EA06EC0F3D4
:1014580084600A68C2F3120555BBC2F384629042E5
:101468002BD01C68E26EE06EC0F384600A68C2F399
:1014780012053DBBC2F3846290427FF470AFE26E06
:1014880022F00042E2666AE792FAA2F2B2FA82F227
:10149800CBE7226E22F000422266C8E792FAA2F257
:1014A800B2FA82F2CEE7626E22F000426266CBE7C1
:1014B80092FAA2F2B2FA82F2D1E7A26E22F00042C8
:1014C800A266CEE792FAA2F2B2FA82F2D4E71D68D7
:1014D8000A68C2F3120696BB900E013000F01F0096
:1014E80009288CBF00200120002852D09EBB940EF2
:1014F8000134A40604F0F844B6BB900E013000F0A5
:101508001F070120B8400443C6BB920E013202F007
:101518001F0202EB4202120522438C681435500E5A
:10152800800000F004002E58C2F3045207279740A9
:1015380026EA070604FA02F232432A502BE792FA07
:10154800A2F0B0FA80F0013000F01F0009288CBF2B
:1015580000200120C8E792FAA2F4B4FA84F4013416
:10156800A40604F0F844C7E792FAA2F0B0FA80F0B3
:10157800013000F01F070120B840C4E792FAA2F238
:10158800B2FA82F2013202F01F0202EB42021205A5
:10159800C2E7CEB9940E0134A40604F0F844E6B9C3
:1015A800900E013000F01F070120B8400443F6B93F
:1015B800900E013000F01F0000EB40021E3A1205A9
:1015C80042F000722243A8E792FAA2F4B4FA84F433
:1015D8000134A40604F0F844E1E792FAA2F0B0FA64
:1015E80080F0013000F01F070120B840DEE792FAD2
:1015F800A2F0B0FA80F0013000F01F0000EB4002CA
:101608001E3A120542F00072DCE700BF00F0FF034B
:10161800FFFF070000007F40000008800001005025
:1016280000070050000021C31000C090000052C7FE
:10163800000084CB00F50070BCE63448BAE610F42C
:10164800000F7FF4C2AEB1F1A04F04D0304A9142EE
:1016580001D000200BE6B1F1A04F18D02D4A9142DD
:1016680013D02D4944F400048A6822F0E072144330
:101678008C602A4A126892092949A1FB0212920930
:1016880002EB42029100019106E02049EAE71F4976
:10169800E8E7019A013A0192019A002AF9D100205B
:1016A800E5E510F0807F7FF494AEB1F1A04F0ED045
:1016B800184A914209D0184944F080748A6822F087
:1016C800E07214438C600020D1E51049F4E70F491B
:1016D800F2E710F4800F13D10E4A914212D0B1F103
:1016E800A04F09D00C4844F48002816821F0E071D1
:1016F8000A4382600020BAE50448F4E70020B6E512
:101708000020B4E50020B2E50220B3E50003005054
:10171800000600500001005000070050FC000020A7
:10172800632D3E0538B503689A6812F0010F3DD164
:1017380099681F4A114209D0C36D43F01003C3656D
:10174800036E43F001030366012030E004469A6803
:1017580022F0004222F03F0242F001029A60FFF7B5
:1017680005FC054604E0FFF701FC401B022811D8E0
:1017780023681A6812F0010F16D19A6812F0010F47
:10178800F1D19A6822F0004222F03F0242F00102B1
:101798009A60E8E7E36D43F01003E365236E43F0D6
:1017A80001032366012002E0002000E0002038BD8C
:1017B8003F00008038B50368B3F1A04F5ED0464AB9
:1017C800934258D0454A956805F01F059B6813F069
:1017D800040F7BD190F85830012B7AD004460123AE
:1017E80080F85830FFF79EFF034600286AD1E26D63
:1017F80022F4706222F0010242F48072E2652268EB
:1018080035498A423FD001F580618A4238D0114675
:101818008A4200D01DB9E16D21F48011E165E16DC6
:1018280011F4805F32D0216E21F0060121661C215F
:101838001160002284F858202168274A91422BD051
:1018480002F58062914224D00A46914227D035B3EE
:10185800052D24D0092D22D0E16D41F48011E165D8
:10186800D26812F0007F32D0E26D22F4405242F486
:101878008052E2652BE002F50072A4E7184AA2E75D
:10188800A1F58071C4E74FF0A041C1E700212166AE
:10189800CDE7A2F58072D8E74FF0A042D5E7CA6835
:1018A80012F0007F05D0E26D22F4405242F48052DB
:1018B800E2658A6822F0004222F03F0242F0040208
:1018C8008A6004E0002284F8582000E002231846C9
:1018D80038BD0223FBE700BF00010050000700509D
:1018E8000003005038B503689A6812F0020F15D04B
:1018F80001219A6812F0010F37D0002937D19A6870
:1019080002F00D02012A0BD0C36D43F01003C3652A
:10191800036E43F001030366012027E00021E8E796
:1019280004469A6822F0004222F03F0242F0020286
:101938009A60036803221A60FFF718FB05462368BC
:101948009B6813F0010F0ED0FFF710FB401B022815
:10195800F5D9E36D43F01003E365236E43F001030B
:101968002366012002E0002000E0002038BD0020AE
:10197800FCE7000070B582B00022019290F8582070
:10198800012A43D00D460446012380F85830FFF75A
:10199800A9FF064680BBE36D23F4885323F00203B6
:1019A80043F00203E3652268936823F0404323F081
:1019B8003F0305F080452B4343F0004393602368C1
:1019C8009B68002B11DA019B01330193019A104B9C
:1019D8009A42F4D9E36D23F0120343F01003E36550
:1019E800002384F8583001260DE0E36D23F003034B
:1019F80043F00103E36503E0E36D43F01003E3659F
:101A0800002384F85830304602B070BD0226FAE749
:101A180001DE040090F85820012A00F0E48030B478
:101A28009CB00346012280F858200268B2F1A04F0A
:101A380048D06E48824249D000220192019A002A79
:101A480047D0926812F0040F4CD001241A689068AD
:101A580010F0040F40F0B880002C40F0B580B2F1CF
:101A6800A04F43D0624882423ED0624A08680028AC
:101A780067D0906820F460404C6893F8385044EA86
:101A88004534204390601868B0F1A04F30D0584CCE
:101A9800A0422DD05548806810F0010F4BD001248A
:101AA8005548806810F0010F47D001202043534C5F
:101AB800A46814F0010F42D0012420430CBF012078
:101AC800002026E002F580720192B7E74A4A0192A7
:101AD800B4E7DA6D42F02002DA65002283F8582074
:101AE800012079E00024B1E7454ABFE7444ABDE751
:101AF8004FF0A040806810F0010F18D001203C4C36
:101B0800A46814F0010F14D0012420430CBF012055
:101B18000020002863D0906820F4716020F00F0046
:101B28000C688968214308439060002051E0002038
:101B3800E5E70024E9E70024B2E70020B6E700243F
:101B4800BBE7916821F4604191601968B1F1A04F39
:101B58001AD0274CA14217D02449896811F0010FE7
:101B68002ED001242449896811F0010F2AD00121BF
:101B78002143224CA46814F0010F00D00120014336
:101B88000CBF0121002110E04FF0A041896811F03D
:101B9800010F13D00121164CA46814F0010F00D0D6
:101BA800012001430CBF01210021D1B1916821F42A
:101BB800716121F00F01916000200AE00146EAE717
:101BC8000446CFE70146D3E7DA6D42F02002DA6532
:101BD8000120002283F858201CB030BC7047002038
:101BE800F7E70020F5E70220704700BF0004005027
:101BF800000100500007005000050050000600508A
:101C080000030050074AD36823F4E0631B041B0C4D
:101C1800000200F4E060184340F0BF6040F4003078
:101C2800D060704700ED00E030B4174BDB68C3F3B9
:101C38000223C3F10704042C28BF04241D1D062D0C
:101C480018D9033B4FF0FF3505FA04F421EA0401E3
:101C5800994005FA03F322EA0303194300280BDB32
:101C68000901C9B200F1604000F5614080F8001335
:101C780030BC70470023E5E700F00F000901C9B246
:101C8800024B1954F4E700BF00ED00E014ED00E04A
:101C9800002807DB00F01F02400901239340024A95
:101CA80042F82030704700BF00E100E00138B0F191
:101CB800807F0AD2064B5860064AF02182F823102A
:101CC8000020986007221A6070470120704700BF03
:101CD80010E000E000ED00E070B4C46C056D6560D4
:101CE800446D14B1846DC56D6560446C04F01F05C6
:101CF800066C0124AC407460046863608368102B30
:101D080005D0036899600368DA6070BC704703689F
:101D18009A600368D960F8E703680C4A934213D9BC
:101D28000B49DBB2083B0B4AA2FB0323426C22F0AF
:101D380003020A448264084AC264C3F304130122FA
:101D480002FA03F3036570470449EAE7070402400F
:101D580020080240CDCCCCCC8008024000080240CC
:101D68000379074A1A4492004265064A8265013B94
:101D780003F01F03012202FA03F3C365704700BF93
:101D88003F8200104009024000285CD010B504468C
:101D980002682E4B9A423ED82D4B13442D4AA2FB83
:101DA80003231B099B0043642B4B0364022384F821
:101DB800253021680A6822F4FF4222F07002A368E5
:101DC800E06803432069034360690343A069034350
:101DD800E0690343206A034313430B602046FFF77F
:101DE8009BFFA368B3F5804F20D0A36C22791A60BB
:101DF800E36C226D5A606368013B032B19D90023F9
:101E08006365A365E3650020E063012384F825305A
:101E180084F8240010BD114B13440E4AA2FB03237F
:101E28001B099B0043640E4B0364BFE700236360F8
:101E3800DBE72046FFF794FF636D00221A60A36D6D
:101E4800E26D5A60DFE70120704700BF07040240D7
:101E5800F8FFFDBFCDCCCCCC00000240F8FBFDBFA5
:101E68000004024038B590F82440012C42D00124E7
:101E780080F8244090F82540E4B2012C04D00023D7
:101E880080F82430022038BD0446022084F825005A
:101E98000020E0632568286820F0010028602046BB
:101EA800FFF71AFF236BD3B12268136843F00E03C0
:101EB8001360A36C1A6812F4803F03D01A6842F4C6
:101EC80080721A60636D1BB11A6842F480721A60DE
:101ED8002268136843F0010313600020D3E72268E7
:101EE800136823F0040313602268136843F00A039D
:101EF8001360DEE70220C6E708B590F82530DBB2AC
:101F0800022B09D00423C363012380F82530002263
:101F180080F82420184608BD0268136823F00E03D1
:101F280013600268136823F001031360826C13685E
:101F380023F480731360436C03F01F02016C0123C8
:101F480093404B60C36C026D5A60436D33B11A689D
:101F580022F480721A60836DC26D5A60012380F882
:101F68002530002380F82430836B13B19847002074
:101F7800D1E70020CFE738B5036C196804682568F5
:101F8800436C03F01F0304229A400A4215D015F04F
:101F9800040F12D0236813F0200F03D1236823F015
:101FA80004032360436C03F01F02016C0423934075
:101FB8004B60036B03B1984738BD02229A400A422E
:101FC8001CD015F0020F19D0236813F0200F06D18A
:101FD800236823F00A032360012380F82530436C2B
:101FE80003F01F02016C022393404B60002380F82A
:101FF8002430C36A002BDFD09847DDE7082202FAB5
:1020080003F30B42D8D015F0080FD5D0236823F07E
:102018000E032360436C03F01F03016C012202FAD4
:1020280003F34B60C26380F82520002380F8243036
:10203800436B002BC0D09847BEE70000F0B482B0D5
:10204800002336E0052400E00024B4403C43023578
:102058005E4E46F825405E4C2568D44304EA0506E2
:102068004F6817F4803F01D042EA0506584D2E60AC
:102078006D6804EA05064F6817F4003F01D042EA8C
:102088000506534D6E60AD6804EA05064F6817F4FF
:10209800801F01D042EA05064D4DAE60ED682C4028
:1020A8004E6816F4001F01D042EA0504484AD4607D
:1020B80001330A6832FA03F400F0858001249C4059
:1020C8002240F5D04D68022D01D0122D10D1DE0826
:1020D800083650F826C003F00705AF000F25BD40AD
:1020E8002CEA050C0D69BD4045EA0C0540F8265060
:1020F80006685F000325BD40ED4305EA060C4E68FF
:1021080006F00306BE4046EA0C0606604E6806F175
:10211800FF3CBCF1010F03D9112E01D0122E10D1B2
:10212800866805EA060CCE68BE4046EA0C0686605C
:10213800466826EA04044E68C6F300169E40264305
:102148004660C46825408C68BC402C43C4604C6819
:1021580014F0805FACD01F4C256E45F00105256654
:10216800246E04F001040194019C9D08AE1C174CD8
:1021780054F8267003F00304A6000F24B44027EA9D
:102188000407B0F1904F3FF45FAF134CA04212D058
:1021980004F58064A04210D004F58064A0420ED0FB
:1021A80004F58064A0420CD004F58064A0423FF49A
:1021B80049AF062449E7012447E7022445E70324F9
:1021C80043E7042441E702B0F0BC70470000014037
:1021D800000401400010024000040048036919424D
:1021E80001D100207047012070470AB98162704709
:1021F80081617047002859D010B5044690F84130E5
:10220800002B43D0242384F841302268136823F03C
:10221800010313606368226823F070631361226806
:10222800936823F400439360E368012B33D0A368D9
:10223800226843F404439360E368022B31D0226898
:10224800536843F0007343F4004353602268D36833
:1022580023F40043D360236962691343A1692268A8
:1022680043EA0123D360E369216A22680B431360C0
:102278002268136843F00103136000206064202380
:1022880084F84130206384F8420010BD80F8403063
:1022980004F03CFBB6E7A368226843F4004393606C
:1022A800CAE723684FF400625A60C8E70120704704
:1022B80090F84130DBB2202B24D190F84030012B2C
:1022C80022D0012380F84030242380F8413002686E
:1022D800136823F0010313600268136823F4805322
:1022E800136002681368194311600268136843F0A9
:1022F80001031360202380F84130002380F8403028
:1023080018467047022070470220704790F8413005
:10231800DBB2202B22D190F84030012B20D00123B2
:1023280080F84030242380F841300268136823F095
:10233800010313600268136823F4706343EA012100
:1023480011600268136843F001031360202380F8CA
:102358004130002380F8403018467047022070470B
:1023680002207047002800F0858010B582B004462E
:1023780090F83A30DBB2052B7ED090F83A30DBB2D9
:10238800022B7CD0404B1A6E42F001021A661B6E7B
:1023980003F001030193019B90F83A300BB980F8E0
:1023A8003930204604F0E6FAA368402B25D0602B8C
:1023B80023D02268136823F01003E16A0B431360EB
:1023C80021680B68314A1A406368A0680343E068D3
:1023D800034320690343207D012848D0002003439C
:1023E800606A0343A06A0343206B43EAC043606BFF
:1023F80043EA006313430B6020E02268136823F06C
:102408001003E16A0B43136021680B681F4A1A40E6
:102418006368A068034320690343207D012823D013
:1024280000200343606A0343A06A0343206B43EA26
:10243800C043606B43EA006313430B6021688B69F8
:10244800002B09DB8B6923F03F03A269E069024393
:10245800206A024313438B6194F83A308BB9012305
:1024680084F83A30002008E04FF48070D9E74FF440
:102478008070B4E701207047012002B010BD012030
:10248800FBE70020F9E700BF00100240113E00E022
:10249800A8B190F83A30DBB2052B12D090F83A3058
:1024A800DBB2012B01D00120704701680B6843F0B3
:1024B80001030B60042380F83A30002070470120A4
:1024C8007047012070470000002838D13E4B1B6838
:1024D80003F4C063B3F5806F08D03B4AD2F880306C
:1024E80023F48073C2F8803000207047364AD2F84F
:1024F800803023F48073C2F88030136823F4C063FB
:1025080043F400731360314B1A68322303FB02F360
:102518002F4AA2FB03239B0C013300E0013B2A4A0C
:10252800526912F4806F01D0002BF7D1264B5B69FA
:1025380013F4806F01D10020704703207047B0F575
:10254800007F08D0204A136823F4C06343F48063F3
:102558001360002070471C4B1B6803F4C063B3F57D
:10256800806F08D0184AD2F8803043F48073C2F8DC
:10257800803000207047144AD2F8803043F48073CA
:10258800C2F88030136823F4C06343F40073136007
:102598000E4B1A68322303FB02F30D4AA2FB0323F6
:1025A8009B0C013300E0013B074A526912F4806F2B
:1025B80001D0002BF7D1044B5B6913F4806F01D174
:1025C800002070470320704700700040FC00002086
:1025D80083DE1B43124AD36803F00303D068C0F3B9
:1025E80003100130032B11D00E4BB3FBF0F30C4A50
:1025F800D068C0F3062000FB03F0094BDB68C3F387
:10260800416301335B00B0FBF3F07047064BB3FB4B
:10261800F0F3D068C0F3062000FB03F0EDE700BF3D
:10262800001002400024F40000366E01002800F07B
:102638005E8270B582B00446036813F0010F37D08C
:10264800B44A936803F00C03D26802F003020C2B1F
:1026580023D0082B23D06368B3F5803F4ED0B3F561
:10266800A02F51D0AB4B1A6822F480321A601A6836
:1026780022F480221A606368002B52D0FEF776FCA1
:102688000546A44B1B6813F4003F11D1FEF76EFCFE
:10269800401B6428F5D9032032E2032AD9D19D4B87
:1026A8001B6813F4003F03D06368002B00F02182FD
:1026B800236813F0020F5DD0964A936803F00C0369
:1026C800D26802F003020C2B3AD0042B3AD0E3680C
:1026D800002B75D08F4A136843F480731360FEF79C
:1026E80045FC05468B4B1B6813F4806F5FD1FEF7E2
:1026F8003DFC401B0228F5D9032001E2854A1368F6
:1027080043F480331360B6E703F18043A3F53C3309
:102718001A6842F480221A601A6842F480321A60F9
:10272800A9E7FEF723FC05467A4B1B6813F4003F24
:10273800BED0FEF71BFC401B6428F5D90320DFE15F
:10274800022AC2D1734B1B6813F4806F03D0E3686D
:10275800002B00F0D0816F4A536823F0FE432169B3
:1027680043EA016353606C4B1868FEF7BDFB002811
:1027780040F0C381236813F0080F4CD063699BB302
:10278800644AD2F8943043F00103C2F89430FEF75B
:10279800EDFB05465F4BD3F8943013F0020F3AD1A6
:1027A800FEF7E4FB401B0228F4D90320A8E1594AAC
:1027B800536823F0FE43216943EA01635360D9E774
:1027C800544A136823F480731360FEF7CFFB054661
:1027D800504B1B6813F4806FCCD0FEF7C7FB401B2F
:1027E8000228F5D903208BE14A4AD2F8943023F025
:1027F8000103C2F89430FEF7B9FB0546454BD3F800
:10280800943013F0020F06D0FEF7B0FB401B0228ED
:10281800F4D9032074E1236813F0040F00F08180D9
:102828003C4B9B6D13F0805F36D13A4B9A6D42F06A
:1028380080529A659B6D03F080530193019B01259B
:10284800364B1B6813F4807F28D0A368012B39D03E
:10285800052B3FD02F4BD3F8902022F00102C3F86C
:102868009020D3F8902022F00402C3F89020A368A7
:10287800002B3DD0FEF77AFB0646264BD3F8903066
:1028880013F0020F4CD1FEF771FB801B41F2883325
:102898009842F2D9032033E10025D1E71F4A136893
:1028A80043F480731360FEF761FB06461B4B1B68FD
:1028B80013F4807FC9D1FEF759FB801B0228F5D994
:1028C80003201DE1134AD2F8903043F00103C2F807
:1028D8009030CCE70F4BD3F8902042F00402C3F8B5
:1028E8009020D3F8902042F00102C3F89020BEE770
:1028F800FEF73CFB0646074BD3F8903013F0020F67
:102908000ED0FEF733FB801B41F288339842F2D990
:102918000320F5E000100240040000200070004091
:10292800E5B9236813F0200F35D0A369E3B1774ADE
:10293800D2F8983043F00103C2F89830FEF716FB3E
:102948000546724BD3F8983013F0020F23D1FEF7E7
:102958000DFB401B0228F4D90320D1E06B4A936D8C
:1029680023F080539365DCE7684AD2F8983023F067
:102978000103C2F89830FEF7F9FA0546634BD3F81D
:10298800983013F0020F06D0FEF7F0FA401B022829
:10299800F4D90320B4E0E369002B00F0B0805B4A6F
:1029A800926802F00C020C2A69D0022B1DD0574BFA
:1029B8001A6822F080721A60DA6822F00302DA607C
:1029C800DA6822F0887222F48032DA60FEF7CEFAF2
:1029D80004464E4B1B6813F0007F4ED0FEF7C6FA34
:1029E800001B0228F5D903208AE0484A136823F01F
:1029F80080731360FEF7BAFA0546444B1B6813F060
:102A0800007F06D0FEF7B2FA401B0228F5D9032052
:102A180076E03E4AD3683E491940236A606A013825
:102A280043EA0013A06A43EA0023206B40080138F8
:102A380043EA4053606B4008013843EA4063E06A68
:102A480043EAC0630B43D360136843F08073136099
:102A5800D36843F08073D360FEF788FA04462B4BA3
:102A68001B6813F0007F06D1FEF780FA001B0228CE
:102A7800F5D9032044E0002042E0002040E0012B8B
:102A880040D0224BDB6803F00301226A914201D057
:102A9800012035E003F0F002616A0139B2EB011F51
:102AA80001D001202CE003F4FE42A16AB2EB012F11
:102AB80001D0012024E003F07842E16AB2EBC16F53
:102AC80001D001201CE003F4C001226B5208013A36
:102AD800B1EB425F01D0012012E003F0C063626BEA
:102AE8005208013AB3EB426F0ED0012008E00120F2
:102AF8007047012004E0012002E0012000E00020EE
:102B080002B070BD0120FBE70020F9E70010024089
:102B18000C809F011E4B9B6803F00C03042B33D0E1
:102B28001B4B9B6803F00C03082B2FD0184B9B689A
:102B380003F00C030C2B01D000207047144BDA680B
:102B480002F00302DB68C3F303130133032A11D134
:102B58001048B0FBF3F30E4AD068C0F3062000FB20
:102B680003F00B4BDB68C3F3416301335B00B0FB3D
:102B7800F3F070470848B0FBF3F3054AD068C0F398
:102B8800062000FB03F0ECE7034870470148704754
:102B98000010024000366E010024F400002800F006
:102BA800EA80F8B50446764B1B6803F00F038B42A6
:102BB8000CD2734A136823F00F030B431360136896
:102BC80003F00F038B4201D00120B3E00D462368C8
:102BD80013F0010F61D06368032B15D0022B33D09B
:102BE800684B1B6813F4806F00F0C780FFF792FFF3
:102BF800654B984235D9634A936823F0F00343F054
:102C08008003936080272DE05E4B1B6813F0007FE4
:102C180001D101208EE0FFF7DDFC5B4B98421AD909
:102C2800584B9B6813F0F00F05D0236813F0020F80
:102C380013D0A3689BB9534A936823F0F00343F079
:102C48008003936080270DE04E4B1B6813F4003F10
:102C5800CCD101206EE0002704E0002702E0002725
:102C680000E00027474A936823F0030361680B4399
:102C78009360FEF77BF90646424B9B6803F00C0312
:102C88006268B3EB820F09D0FEF770F9801B41F23E
:102C980088339842F0D903204CE00027236813F0CA
:102CA800020F48D013F0040F04D0364A936843F457
:102CB800E0639360236813F0080F06D0314A9368E5
:102CC80023F47C5343F4E06393602E4A936823F023
:102CD800F003A1680B439360294B1B6803F00F03B3
:102CE800AB4230D8236813F0040F06D0254A936806
:102CF80023F4E063E1680B439360236813F0080F43
:102D080007D0204A936823F46053216943EAC1033A
:102D18009360FFF7FFFE1B4B9B68C3F303131B4A2B
:102D2800D35C03F01F03D840194B1860194B18687F
:102D3800FEF7DAF8F8BD002FCED0124A936823F0D8
:102D4800F0039360C8E70E4A136823F00F032B4380
:102D58001360FEF70BF90646094B1B6803F00F03D7
:102D6800AB42BFD0FEF702F9801B41F2883398428C
:102D7800F2D90320DEE7012070470120DAE700BF1F
:102D8800002002400010024000B4C404A8A10008BA
:102D9800FC00002004000020014B1868704700BFA9
:102DA800FC00002008B5FFF7F7FF054B9B68C3F34D
:102DB8000223044AD35C03F01F03D84008BD00BFB8
:102DC80000100240B8A1000808B5FFF7E5FF054B61
:102DD8009B68C3F3C223044AD35C03F01F03D840A3
:102DE80008BD00BF00100240B8A10008F0B583B0CC
:102DF8000446036813F4002F6ED0354B9B6D13F017
:102E0800805F1ED1324B9A6D42F080529A659B6D5D
:102E180003F080530193019B01262E4A136843F463
:102E280080731360FEF7A2F805462A4B1B6813F45B
:102E3800807F08D1FEF79AF8401B0228F5D90325B0
:102E480002E00026E9E7002545BB214BD3F8903086
:102E580013F4407315D0226D9A4212D01C4AD2F84E
:102E6800903023F44073D2F8901041F48031C2F8C6
:102E78009010D2F8901021F48031C2F89010C2F866
:102E8800903013F0010F10D145B9114AD2F89030A3
:102E980023F44073216D0B43C2F89030EEB10C4A15
:102EA800936D23F08053936517E0FEF75FF80746AC
:102EB800074BD3F8903013F0020FE5D1FEF756F820
:102EC800C01B41F288339842F2D90325DCE700BFE2
:102ED80000100240007000400025236813F0010F25
:102EE80008D09F4AD2F8883023F0030361680B4367
:102EF800C2F88830236813F0020F08D0984AD2F835
:102F0800883023F00C03A1680B43C2F8883023688B
:102F180013F0040F08D0924AD2F8883023F0300317
:102F2800E1680B43C2F88830236813F0080F08D013
:102F38008B4AD2F8883023F0C00321690B43C2F8CA
:102F48008830236813F0100F08D0854AD2F88830EB
:102F580023F4407361690B43C2F88830236813F087
:102F6800200F08D07E4AD2F8883023F44063A16944
:102F78000B43C2F88830236813F0400F08D0784A12
:102F8800D2F8883023F44053E1690B43C2F8883003
:102F9800236813F0800F08D0714AD2F8883023F4E0
:102FA8004043216A0B43C2F88830236813F4807FBA
:102FB80008D06B4AD2F8883023F44033616A0B4357
:102FC800C2F88830236813F4003F08D0644AD2F866
:102FD8009C3023F00303A16A0B43C2F89C3023689A
:102FE80013F4007F08D05E4AD2F8883023F44023D7
:102FF800E16A0B43C2F88830236813F4806F0CD061
:10300800574AD2F8883023F44013216B0B43C2F897
:103018008830236BB3F5801F79D0236813F4006FD1
:103028000CD04F4AD2F8883023F44003616B0B432D
:10303800C2F88830636BB3F5800F6DD0236813F442
:10304800805F0CD0464AD2F8883023F04073A16BD9
:103058000B43C2F88830A36BB3F1807F61D023683B
:1030680013F4005F0CD03E4AD2F8883023F0406356
:10307800E16B0B43C2F88830E36BB3F1006F55D0B6
:10308800236813F4804F0CD0354AD2F8883023F0E7
:103098004063216C0B43C2F88830236CB3F1006F96
:1030A80049D0236813F4004F0CD02D4AD2F8883049
:1030B80023F04053616C0B43C2F88830636CB3F162
:1030C800805F3DD0236813F4803F0CD0244AD2F8A7
:1030D800883023F04043A16C0B43C2F88830A36CBE
:1030E800B3F1804F31D0236813F4802F0CD01C4AE1
:1030F800D2F89C3023F44013E16C0B43C2F89C30A7
:10310800E36CB3F5001F25D0284603B0F0BDD368A3
:1031180043F48013D36080E7D36843F48013D3600B
:103128008CE7D36843F48013D36098E7D36843F4FB
:103138008013D360A4E7D36843F48013D360B0E767
:10314800D36843F48033D360BCE7D36843F4803357
:10315800D360C8E7D36843F48013D360D4E700BFD3
:1031680000100240F8B505460F4616461C462B6867
:103178009B6837EA03030CBF01230023B34237D00F
:10318800B4F1FF3FF3D0FDF7F1FE069BC01AA04251
:1031980001D2002CEBD12A68536823F0E003536076
:1031A8006B68B3F5827F0BD0AB6AB3F5005F14D0C0
:1031B800012385F85D30002385F85C30032018E092
:1031C800AB68B3F5004F02D0B3F5806FECD12A6835
:1031D800136823F040031360E6E72A68136823F4B2
:1031E800005313602A68136843F400531360DFE741
:1031F8000020F8BDF8B507460C4615461E4602E005
:10320800B6F1FF3F0BD13A6893682340AB423BD0FD
:10321800B4F5C06FF4D1002DF2D1137BF0E7FDF7C0
:10322800A5FE069BC01AB04201D2002EEBD13A6827
:10323800536823F0E00353607B68B3F5827F0BD0BB
:10324800BB6AB3F5005F14D0012387F85D30002313
:1032580087F85C30032018E0BB68B3F5004F02D054
:10326800B3F5806FECD13A68136823F0400313601C
:10327800E6E73A68136823F4005313603A68136862
:1032880043F400531360DFE70020F8BD70B582B047
:1032980004460D46164600920B4600224FF4C051D4
:1032A800FFF7A8FFB8B900962B46002280212046D8
:1032B800FFF758FFB8B900962B4600224FF4C061BB
:1032C8002046FFF797FF034650B1236E43F02003D3
:1032D8002366032304E0236E43F0200323660323BD
:1032E800184602B070BD236E43F020032366032303
:1032F800F6E7002858D010B504460023836290F8FA
:103308005D30002B45D0022384F85D3022681368B5
:1033180023F040031360E368B3F5E06F3ED9002261
:10332800B3F5706F04D0B3F5E06F01D00021A1624E
:10333800216B21B9B3F5E06F33D9022323636368A6
:10334800A1680B4321690B4361690B43A16901F42F
:1033580000710B43E1690B43216A0B43A06A2168A2
:1033680003430B60638B03F00403616A0B43616BD7
:103378000B43E1680B43216813434B602268D36910
:1033880023F40063D36100202066012384F85D30B4
:1033980010BD80F85C3003F047FBB4E74FF480526F
:1033A800BEE701232363CAE7012070472DE9F843EC
:1033B800DDF8208090F85C40012C00F05C811D460F
:1033C80017460E460446012380F85C30FDF7CEFD13
:1033D800814694F85D00C0B26368012814D0B3F543
:1033E800827F09D00223012284F85D20002284F81C
:1033F8005C201846BDE8F883A368002B40F02D81B7
:10340800042801D00223EEE7002E00F02881002FC7
:1034180000F02781002D00F0268194F85D30DBB2A2
:10342800042B02D0052384F85D300023236627642B
:10343800A4F84650A4F84450A663E587A587E3643A
:103448002365E368B3F5E06F01D8012D22D922681E
:10345800536823F48053536023681A6812F0400FAE
:1034680003D11A6842F040021A60E368B3F5E06FCE
:1034780056D963680BB1012D0AD1A26B2368128853
:10348800DA60A36B0233A363E38F013B9BB2E3874C
:10349800012525E02268536843F480535360DBE735
:1034A80023689A6812F0010F10D0B4F8462092B23F
:1034B80062B1DA68236C1A80236C02332364B4F88F
:1034C8004630013B9BB2A4F846300125FDF74EFD7E
:1034D800A0EB0900404503D3B8F1FF3F40F0C58099
:1034E800E38F9BB22BB9B4F846309BB2002B00F0A7
:1034F800A78023689A6812F0020FD1D0E28F92B2A7
:10350800002ACDD0002DCBD0A26B1288DA60A36B35
:103518000233A363E38F013B9BB2E3870025BFE738
:1035280063680BB1012D0ED1E38F9BB2012B0CD92F
:10353800A26B23681288DA60A36B0233A363E38F5C
:10354800023B9BB2E387012547E0A26B2368127810
:103558001A73A36B0133A363E38F013B9BB2E38729
:10356800F1E7E28F92B2012A0BD9A26B1288DA60D6
:10357800A36B0233A363E38F023B9BB2E38700256F
:103588003CE0A26B12781A73A36B0133A363E38F39
:10359800013B9BB2E387002530E02268536843F47F
:1035A8008053536001250CE0226C1B7B1370236C45
:1035B80001332364B4F84630013B9BB2A4F846308B
:1035C8000125FDF7D3FCA0EB0900404502D3B8F173
:1035D800FF3F4CD1B8F1000F4BD0E38F9BB21BB922
:1035E800B4F846309BB25BB323689A6812F0020FB6
:1035F80004D0E28F92B20AB1002DB2D123689A6842
:1036080012F0010FDDD0B4F8462092B2002AD8D0CB
:10361800B4F8462092B2012AC6D9DA68236C1A8017
:10362800236C02332364B4F84630023B9BB2A4F8FF
:103638004630B4F846309BB2012BAED90125C0E71D
:103648004A4641462046FFF721FE034600283FF43C
:10365800CAAE202323660123C5E60223C3E601235D
:10366800C1E60123BFE60123BDE60323BBE603232E
:10367800B9E60323B7E60223BBE6000030B4036AC9
:1036880023F001030362036A4468826922F48032EA
:1036980022F073020D682A4323F002038D682B433E
:1036A800204DA84213D005F50065A8420FD005F5B6
:1036B8004065A8420BD005F58065A84207D005F5FE
:1036C8008065A84203D005F50065A84205D123F01E
:1036D8000803CD682B4323F00403124DA84213D0EE
:1036E80005F50065A8420FD005F54065A8420BD046
:1036F80005F58065A84207D005F58065A84203D086
:1037080005F50065A84205D124F440754C692C43A1
:103718008D692C43446082614A684263036230BC0D
:10372800704700BF002C014030B4036A23F4807353
:103738000362036A4468C26922F4803222F0730289
:103748000D682A4323F400738D6843EA05231C4D52
:10375800A84207D005F50065A84203D005F5E05555
:10376800A84206D123F40063CD6843EA052323F475
:103778008063134DA84213D005F50065A8420FD009
:1037880005F54065A8420BD005F58065A84207D02D
:1037980005F58065A84203D005F50065A84207D164
:1037A80024F440544D6944EA05148D6944EA05142B
:1037B8004460C2614A68C263036230BC704700BF9C
:1037C800002C014030B4036A23F480530362036A77
:1037D8004468C26922F0807222F4E6420D6842EA27
:1037E800052223F400538D6843EA05331B4DA84294
:1037F80007D005F50065A84203D005F5E055A842B5
:1038080006D123F40043CD6843EA053323F480430B
:10381800124DA84213D005F50065A8420FD005F552
:103828004065A8420BD005F58065A84207D005F58C
:103838008065A84203D005F50065A84207D124F4A5
:1038480040444D6944EA85148D6944EA851444600E
:10385800C2614A680264036230BC7047002C0140B0
:1038680030B4036A23F480330362036A4468026D48
:1038780022F4803222F070020D682A4323F40033C8
:103888008D6843EA0543114DA84213D005F500653C
:10389800A8420FD005F54065A8420BD005F5806514
:1038A800A84207D005F58065A84203D005F5006554
:1038B800A84204D124F480344D6944EA05244460C4
:1038C80002654A688264036230BC7047002C01407C
:1038D80030B4036A23F480130362036A4468026DF8
:1038E80022F0807222F4E0420D6842EA052223F4B5
:1038F80000138D6843EA0553114DA84213D005F50E
:103908000065A8420FD005F54065A8420BD005F523
:103918008065A84207D005F58065A84203D005F563
:103928000065A84204D124F480244D6944EA852422
:10393800446002654A68C264036230BC704700BFD5
:10394800002C014010B4036A046A24F001040462E4
:10395800846924F0F00444EA021223F00A030B43BA
:10396800826103625DF8044B704710B4036A23F068
:10397800100303628469036A24F4704444EA02323F
:1039880023F0A00343EA0113826103625DF8044B4C
:103998007047836823F4401323F07003194341F000
:1039A80007018160704770470368364A904216D015
:1039B800B0F1804F13D0A2F5943290420FD002F5A7
:1039C800806290420BD002F58062904207D002F5E7
:1039D8009432904203D002F5E052904203D123F092
:1039E80070034A681343274A904222D0B0F1804FAF
:1039F8001FD0A2F5943290421BD002F5806290420B
:103A080017D002F58062904213D002F594329042AA
:103A18000FD002F5406290420BD002F580629042CE
:103A280007D002F58062904203D002F5006290420E
:103A380003D123F44073CA68134323F080034A690F
:103A4800134303608B68C3620B6883620D4B984213
:103A580013D003F5006398420FD003F540639842F2
:103A68000BD003F58063984207D003F58063984232
:103A780003D003F50063984201D10B690363012366
:103A880043617047002C0140A8B110B5044690F876
:103A98003D305BB1022384F83D30211D2068FFF7DB
:103AA80083FF012384F83D30002010BD80F83C30AE
:103AB80003F026F8EEE701207047A8B110B50446D8
:103AC80090F83D305BB1022384F83D30211D206819
:103AD800FFF76AFF012384F83D30002010BD80F80D
:103AE8003C30FFF760FFEEE70120704730B4036A0F
:103AF80023F010030362036A4468826922F080722B
:103B080022F4E6420D6842EA052223F020038D687C
:103B180043EA05131B4DA84207D005F50065A842E6
:103B280003D005F5E055A84206D123F08003CD68FF
:103B380043EA051323F04003124DA84213D005F5BC
:103B48000065A8420FD005F54065A8420BD005F5E1
:103B58008065A84207D005F58065A84203D005F521
:103B68000065A84207D124F440644D6944EA8504FD
:103B78008D6944EA8504446082614A68826303620D
:103B880030BC7047002C014038B590F83C30012B10
:103B980000F092800D460446012380F83C30022351
:103BA80080F83D30142A1ED8DFE802F00B1D1D1DD9
:103BB800241D1D1D381D1D1D4B1D1D1D5F1D1D1D9B
:103BC80072000068FFF75AFD2268936943F0080302
:103BD80093612268936923F00403936122689369CF
:103BE80029690B439361012384F83D30002084F850
:103BF8003C0038BD0068FFF779FF2268936943F4F9
:103C0800006393612268936923F480639361226857
:103C18009369296943EA01239361E4E70068FFF7A0
:103C280083FD2268D36943F00803D3612268D3690E
:103C380023F00403D3612268D36929690B43D36154
:103C4800D1E70068FFF7BEFD2268D36943F400633B
:103C5800D3612268D36923F48063D3612268D3696E
:103C6800296943EA0123D361BDE70068FFF7F8FD3E
:103C78002268136D43F0080313652268136D23F05F
:103C8800040313652268136D29690B431365AAE7BA
:103C98000068FFF71DFE2268136D43F40063136587
:103CA8002268136D23F4806313652268136D2969F4
:103CB80043EA0123136596E702209AE710B4846863
:103CC80024F47F4442EA03230B43234383605DF8D3
:103CD800044B704790F83C30012B00F0828010B5FF
:103CE8000446012380F83C30022380F83D30026806
:103CF80090683D4B034093600B68B3F5005F50D06C
:103D08002ED8302B48D018D9502B56D01CD9602B20
:103D18005DD0702B0AD1CB684A6889682068FFF7A4
:103D2800CDFF2268936843F077039360012384F8FA
:103D38003D30002084F83C0010BD102B2CD0202BE7
:103D48002AD0002BF2D127E0402BEFD1CA6849686E
:103D58002068FFF7F7FD40212068FFF71AFEE5E726
:103D6800224A934218D00AD9214A934214D010D932
:103D7800204A934210D010329342D7D10CE0B3F1CD
:103D8800101F09D0103A934206D0B3F5801FCDD149
:103D980002E0103A9342C9D119462068FFF7F9FDAD
:103DA800C4E7CB684A6889682068FFF787FF2268FC
:103DB800936843F480439360B8E7CA684968206809
:103DC800FFF7C0FD50212068FFF7E3FDAEE7CA68A2
:103DD80049682068FFF7C9FD60212068FFF7D9FD11
:103DE800A4E70220704700BF8800CEFF3000100013
:103DF800500010006000100010B401F01F010123F2
:103E080003FA01F4036A23EA04030362036A8A409B
:103E1800134303625DF8044B7047000010B5044675
:103E280001220068FFF7E8FF2368154A934213D080
:103E380002F5006293420FD002F5406293420BD024
:103E480002F58062934207D002F58062934203D064
:103E580002F50062934203D15A6C42F400425A645C
:103E680022689168074B0B40062B06D0B3F5803FBC
:103E780003D0136843F001031360002010BD00BF96
:103E8800002C01400700010010B401F01F010423B9
:103E980003FA01F4036A23EA04030362036A8A400B
:103EA800134303625DF8044B7047000010B50446E5
:103EB80004220068FFF7E8FF2268536C43F40043CC
:103EC800536422689168064B0B40062B06D0B3F565
:103ED800803F03D0136843F001031360002010BD36
:103EE8000700010090F83C30012B2ED030B401239C
:103EF80080F83C30022380F83D30026853689568AA
:103F0800134CA24207D004F50064A24203D004F582
:103F1800E054A24203D123F470034C68234323F0F6
:103F2800007323F070030C68234325F0800489682C
:103F38002143536003689960012380F83D300023D2
:103F480080F83C30184630BC70470220704700BFEC
:103F5800002C014090F83C30012B60D010B40123B4
:103F680080F83C30CB6823F440738A68134323F409
:103F780080634A68134323F400630A68134323F4F5
:103F880080530A69134323F400534A69134323F403
:103F980080430A6B134323F470238A6943EA02437C
:103FA8000268204CA24207D004F50064A24203D064
:103FB80004F5E054A24203D123F08053CC69234393
:103FC800184CA24207D004F50064A24203D004F5BD
:103FD800E054A2421BD123F470038C6A43EA0453D1
:103FE80023F080730C6A234323F000734C6A234345
:103FF8000C4CA24207D004F50064A24203D004F599
:10400800E054A24203D123F00053C96A0B4353641E
:10401800002380F83C3018465DF8044B70470220B6
:10402800704700BF002C01400268136823F0C003EA
:1040380013600268936823F4000393602023C0F898
:10404800803070470268136823F490731360026825
:10405800936823F0805323F0010393602023C0F872
:1040680084300023C366704710B5D0F88040202CF8
:1040780042D1002942D0002A42D090F87C30012B4E
:1040880040D013460446012280F87C200165A0F840
:104098005430A0F856300022C0F888202122C0F8F9
:1040A8008020426F8AB11849D162426F1749116363
:1040B800426F17495163426F0021916302682832A9
:1040C800016D406FFDF7CEFE58B9236840221A6291
:1040D800002084F87C002268936843F08003936092
:1040E8000BE01023C4F88830002384F87C302023A8
:1040F800C4F88030012000E0022010BD0120FCE758
:104108000120FAE70220F8E7D54100082542000817
:104118007B42000810B5D0F88440202C47D10029F4
:1041280047D0002A47D090F87C30012B45D0134661
:104138000446012280F87C208165A0F85C300022CA
:10414800C0F888202222C0F88420826F8AB11C49D6
:10415800D162826F1B491163826F1B495163826F61
:10416800002191630168826D2431806FFDF77AFE2A
:1041780090B9002084F87C002268136843F48073A7
:1041880013602268936843F0010393602268936880
:1041980043F0400393600BE01023C4F888300023F9
:1041A80084F87C302023C4F88030012000E002200D
:1041B80010BD0120FCE70120FAE70220F8E700BF64
:1041C8002F420008714200087B42000808B5836A44
:1041D8000268126812F0200F0DD10022A3F85620B1
:1041E80019688A6822F080028A601A68136843F0A6
:1041F8004003136008BD184602F022FBFAE708B531
:1042080001680A6822F040020A602022C0F8802073
:104218000022026702F014FB08BD704708B5806AE7
:10422800FFF7FBFF08BD08B5836A0268126812F041
:10423800200F14D10022A3F85E2019680A6822F41E
:1042480080720A6019688A6822F001028A60196817
:104258008A6822F040028A602022C3F88420184627
:1042680002F0D0FA08BD704708B5806AFFF7FBFF77
:1042780008BD38B5846AD4F88020D4F884502368FF
:104288009B6813F0800F01D0212A10D023689B6807
:1042980013F0400F01D0222D10D0D4F8883043F00D
:1042A8001003C4F88830204602F0CBFA38BD00234A
:1042B800A4F856302046FFF7B7FEE7E70023A4F836
:1042C8005E302046FFF7BEFEE7E7000070B5044603
:1042D8000268D3691068916813F00F050DD113F0C7
:1042E800200F0AD010F0200F02D111F0805F04D007
:1042F800E36E0BB12046984770BD002D00F0838017
:104308005F4D0D4002D110F4907F7CD013F0010F67
:1043180009D010F4807F06D001261662D4F88820D0
:104328003243C4F8882013F0020F0BD011F0010FAC
:1043380008D0226802261662D4F8882042F00402C7
:10434800C4F8882013F0040F0BD011F0010F08D027
:10435800226804261662D4F8882042F00202C4F8C3
:10436800882013F0080F0BD010F0200F00D13DB1BA
:10437800226808251562D4F888202A43C4F88820C2
:10438800D4F88820002AB7D013F0200F09D010F0F5
:10439800200F02D111F0805F03D0E36E0BB12046ED
:1043A8009847D4F8882023689B6813F0400F02D1FF
:1043B80012F0080F20D02046FFF744FE23689A68C1
:1043C80012F0400F14D09A6822F040029A60A36F4E
:1043D80053B12C4A9A63A06FFDF78EFD00288BD04D
:1043E800A06F836B984787E7204602F02AFA83E795
:1043F800204602F026FA7FE7204602F022FA002340
:10440800C4F8883078E713F4801F02D011F4800FC5
:104418000FD113F0800F13D010F0800F02D111F4D8
:10442800000F0DD0236F002B3FF466AF204698474E
:1044380062E74FF480131362204601F017F85BE738
:1044480013F0400F02D010F0400F10D113F4000FFA
:1044580002D010F0804F0ED113F0807F3FF44CAFA4
:104468000028BFF649AF204601F001F844E720468E
:10447800FFF7C5FE40E7204600F0FAFF3CE700BF23
:10448800010000109144000808B5806A0023A0F8D4
:104498005E30A0F8563002F0D4F908BD00000000E4
:1044A8002DE9F048044601688368026913434269AC
:1044B8001343C2691343426E134308689D4A02407E
:1044C8001A430A602268536823F44053E1680B4397
:1044D8005360A1692268984B9A4201D0236A194314
:1044E800936823F06E4323F430630B439360226890
:1044F800D36A23F00F03616A0B43D36223688F4AA0
:10450800934227D08E4A934238D08E4A93424ED057
:104518008D4A934261D08D4A934274D0864A934221
:1045280000F08A801025844A934200F0AA80E3694B
:10453800B3F5004F00F07083082D00F23286DFE8F3
:1045480015F0C704170555053006AD0530063006C9
:104558003006EB0502F55842D2F8882002F0030233
:10456800032A09D8DFE802F0020481060125DAE708
:104578000425D8E70825D6E71025D4E702F5E63262
:10458800D2F8882002F00C020C2A0ED8DFE802F0DC
:10459800070D0D0D090D0D0D6F0D0D0D0B000025EF
:1045A800C1E70425BFE70825BDE71025BBE702F5ED
:1045B800E432D2F8882002F03002102A09D005D956
:1045C800202A56D0302A06D10825ACE71AB900258A
:1045D800A9E70425A7E71025A5E702F5E232D2F8F6
:1045E800882002F0C002402A09D005D9802A42D08A
:1045F800C02A06D1082596E71AB9002593E70425AD
:1046080091E710258FE702F5E032D2F8882002F40E
:104618004072B2F5807F0BD007D9B2F5007F2CD05D
:10462800B2F5407F06D108257DE71AB900257AE75B
:10463800042578E7102576E702F5C832D2F88820F5
:1046480002F44062B2F5806F0BD007D9B2F5006F63
:1046580015D0B2F5406F06D1082564E71AB90025D0
:1046680061E704255FE710255DE702255BE7022582
:1046780059E7022557E7022555E7022553E70225A2
:1046880051E7082D00F29085DFE815F009008E0546
:1046980068008E0586008E058E058E05BD00FEF726
:1046A80081FB636AD3B1012B36D0022B36D0032BA2
:1046B80036D0042B36D0052B36D0062B36D0072B18
:1046C80036D0082B44D0092B44D00A2B44D00B2BCE
:1046D80001D0012303E04FF4807300E00123B0FB15
:1046E800F3F0002800F06285626802EB420383421F
:1046F80000F25E85B0EB023F00F25C85082D00F207
:104708008882DFE815F0D400860233018602CB01E7
:1047180086028602860222020223E0E70423DEE7FD
:104728000623DCE70823DAE70A23D8E70C23D6E7D1
:104738001023D4E7F369FFCF008000400038014020
:104748000044004000480040004C00400050004039
:104758002023C4E74023C2E78023C0E7636A002B15
:104768006ED0012B6ED0022B6ED0032B6ED0042B93
:104778006ED0052B6ED0062B6ED0072B6ED0082B73
:104788006ED0092B6ED00A2B6ED00B2B01D0AE4801
:10479800A7E74FF22440A4E7FEF7BCF9636AD3B158
:1047A800012B1CD0022B1CD0032B1CD0042B1CD09B
:1047B800052B1CD0062B1CD0072B1CD0082B1CD07B
:1047C800092B1CD00A2B1CD00B2B01D0012303E092
:1047D8004FF4807300E00123B0FBF3F081E702237C
:1047E800FAE70423F8E70623F6E70823F4E70A23A1
:1047F800F2E70C23F0E71023EEE72023ECE7402351
:10480800EAE78023E8E7636A83B3012B31D0022B00
:1048180032D0032B33D0042B34D0052B35D0062BC4
:1048280036D0072B37D0082B38D0092B39D00A2B94
:104838003AD00B2B02D04FF4004052E7802050E7CB
:1048480081484EE781484CE781484AE7814848E774
:10485800814846E7814844E7814842E7814840E784
:1048680081483EE781483CE781483AE74FF40040F9
:1048780037E74FF4804034E74FF4005031E741F216
:1048880055502EE74FF480502BE740F6CC4028E7F0
:1048980040F6AA2025E74FF4006022E74FF4806035
:1048A8001FE74FF400701CE74FF4807019E7FEF71C
:1048B80079FA636AE3B1012B3AD0022B3BD0032B80
:1048C8003CD0042B3DD0052B3ED0062B3FD0072BE8
:1048D80040D0082B41D0092B42D00A2B43D00B2BB8
:1048E80002D00122002305E04FF48072002301E08A
:1048F800012200230021FCF731F90F0247EA106773
:1049080006026268500800252B4616EB000B47F19B
:10491800000C58466146FCF721F903462846A3F5E2
:104928004071544A914200F247842268D36001E3FF
:1049380002220023DEE704220023DBE7062200230D
:10494800D8E708220023D5E70A220023D2E70C2261
:104958000023CFE710220023CCE720220023C9E759
:1049680040220023C6E780220023C3E7636AFBB125
:10497800012B2DD0022B30D0032B33D0042B36D073
:10498800052B39D0062B3CD0072B3FD0082B42D023
:10499800092B45D00A2B48D00B2B04D0DFF8D8B010
:1049A8004FF0000C08E0DFF8A0B04FF0000C03E077
:1049B800DFF8C4B04FF0000C560800252B461BEB5F
:1049C80006004CF10001FCF7C9F803462846A6E7A3
:1049D800DFF8A8B04FF0000CEEE7DFF8A4B04FF016
:1049E800000CE9E70FF2500CDCE900BCE4E7DFF863
:1049F80094B04FF0000CDFE7DFF88CB04FF0000CFC
:104A0800DAE70FF23C0CDCE900BCD5E7DFF87CB054
:104A18004FF0000CD0E7DFF878B04FF0000CCBE790
:104A2800DFF870B04FF0000CC6E7DFF86CB04FF05D
:104A3800000CC1E7AFF3008000AAB0280000000016
:104A480000555814000000000024F40000127A00F9
:104A580000093D00AAB0280080841E00006A1800E2
:104A68005558140040420F0020A1070090D00300C1
:104A780048E80100FFFC0F00000024F40000127A4F
:104A88000000093D0080841E00006A180040420FA3
:104A98000020A1070090D0030048E801FEF73AF88B
:104AA800636AE3B1012B32D0022B33D0032B34D00D
:104AB800042B35D0052B36D0062B37D0072B38D012
:104AC800082B39D0092B3AD00A2B3BD00B2B02D01C
:104AD8000122002305E04FF48072002301E0012247
:104AE80000230021FCF73AF80F0247EA1067060294
:104AF8006268500800252B4616EB000B47F1000CA6
:104B080058466146FCF72AF80346284607E702227A
:104B18000023E6E704220023E3E706220023E0E778
:104B280008220023DDE70A220023DAE70C2200230B
:104B3800D7E710220023D4E720220023D1E7402220
:104B48000023CEE780220023CBE7636AFBB1012B69
:104B58002DD0022B30D0032B33D0042B36D0052B8D
:104B680039D0062B3CD0072B3FD0082B42D0092B3D
:104B780045D00A2B48D00B2B04D04FF4000B4FF034
:104B8800000C08E04FF4004B4FF0000C03E04FF42A
:104B9800000B4FF0000C560800252B461BEB0600B7
:104BA8004CF10001FBF7DAFF03462846B7E64FF45D
:104BB800800B4FF0000CEEE74FF4001B4FF0000C99
:104BC800E9E7DFF88CB44FF0000CE4E74FF4801B02
:104BD8004FF0000CDFE7DFF87CB44FF0000CDAE7A9
:104BE800DFF874B44FF0000CD5E74FF4002B4FF00A
:104BF800000CD0E74FF4802B4FF0000CCBE74FF4BC
:104C0800003B4FF0000CC6E74FF4803B4FF0000C20
:104C1800C1E70120002382E6082D00F25681DFE873
:104C280015F00900570096005401CF0054015401B3
:104C380054010E01FEF7B6F8636AD3B1012B33D0E5
:104C4800022B33D0032B33D0042B33D0052B33D096
:104C5800062B33D0072B33D0082B33D0092B33D076
:104C68000A2B33D00B2B01D0012303E04FF48073C0
:104C780000E00123B0FBF3F06268530803EB400344
:104C8800B3FBF2F39BB20020A3F110014FF6EF72D1
:104C9800914200F293829AB222F00F02C3F34203C8
:104CA80013432268D36045E10223E3E70423E1E7E5
:104CB8000623DFE70823DDE70A23DBE70C23D9E730
:104CC8001023D7E72023D5E74023D3E78023D1E774
:104CD800FEF77AF8636AD3B1012B24D0022B24D0D3
:104CE800032B24D0042B24D0052B24D0062B24D02E
:104CF800072B24D0082B24D0092B24D00A2B24D00E
:104D08000B2B01D0012303E04FF4807300E0012353
:104D1800B0FBF3F06268530803EB4003B3FBF2F314
:104D28009BB20020B0E70223F2E70423F0E7062352
:104D3800EEE70823ECE70A23EAE70C23E8E7102369
:104D4800E6E72023E4E74023E2E78023E0E7636A1D
:104D5800CBB1012B20D0022B20D0032B20D0042B49
:104D680020D0052B20D0062B20D0072B20D0082BB5
:104D780020D0092B20D00A2B20D00B2B01D0A84BF8
:104D880002E0A84B00E0A64B626803EB5203B3FBBA
:104D9800F2F39BB2002077E7A34BF5E7A34BF3E7C9
:104DA800A34BF1E7A34BEFE7A34BEDE7A34BEBE7EF
:104DB800A34BE9E7A34BE7E7A34BE5E7A34BE3E7FF
:104DC800FDF7A8FE636AD3B1012B24D0022B24D0AF
:104DD800032B24D0042B24D0052B24D0062B24D03D
:104DE800072B24D0082B24D0092B24D00A2B24D01D
:104DF8000B2B01D0012303E04FF4807300E0012363
:104E0800B0FBF3F06268530803EB4003B3FBF2F323
:104E18009BB2002038E70223F2E70423F0E70623D9
:104E2800EEE70823ECE70A23EAE70C23E8E7102378
:104E3800E6E72023E4E74023E2E78023E0E7636A2C
:104E4800DBB1012B23D0022B24D0032B25D0042B3C
:104E580026D0052B27D0062B28D0072B29D0082BA6
:104E68002AD0092B2BD00A2B2CD00B2B02D04FF495
:104E7800803304E04FF4807301E04FF480336268BC
:104E880003EB5203B3FBF2F39BB20020FCE64FF4B2
:104E98000043F4E74FF48043F1E742F6AA23EEE734
:104EA8004FF40053EBE741F69813E8E741F2545307
:104EB800E5E74FF48053E2E74FF40063DFE74FF490
:104EC8008063DCE74FF40073D9E701200023DBE6B9
:104ED800FDF768FF636AD3B1012B35D0022B35D0BB
:104EE800032B35D0042B35D0052B35D0062B35D0E8
:104EF800072B35D0082B35D0092B35D00A2B35D0C8
:104F08000B2B01D0012203E04FF4807200E0012254
:104F1800B0FBF2F2636802EB5302B2FBF3F292B217
:104F28000020A2F110014FF6EF73994200F2488178
:104F38002368DA600122A4F86A20A4F86820002215
:104F4800E2662267BDE8F0880222E1E70422DFE793
:104F58000622DDE70822DBE70A22D9E70C22D7E799
:104F68001022D5E72022D3E74022D1E78022CFE7DD
:104F7800FDF72AFF636AD3B1012B23D0022B23D07C
:104F8800032B23D0042B23D0052B23D0062B23D08F
:104F9800072B23D0082B23D0092B23D00A2B23D06F
:104FA8000B2B01D0012203E04FF4807200E00122B4
:104FB800B0FBF2F2636802EB5302B2FBF3F292B277
:104FC8000020AEE70222F3E70422F1E70622EFE72A
:104FD8000822EDE70A22EBE70C22E9E71022E7E7CF
:104FE8002022E5E74022E3E78022E1E7636AC3B3D2
:104FF800012B3FD0022B3FD0032B3FD0042B3FD0B7
:10500800052B3FD0062B3FD0072B3FD0082B3FD096
:10501800092B3FD00A2B3FD00B2B1FD0024A21E08F
:105028000048E80148E801000024F40000127A0072
:105038005461510000093D0000D43000AAB0280096
:1050480080841E0040420F0020A1070090D003007A
:105058000055150000CC0C0000AA0A004FF22442AB
:1050680000E0584A636802EB5302B2FBF3F292B2D3
:10507800002056E7544AF5E7544AF3E7544AF1E763
:10508800544AEFE7544AEDE7544AEBE7544AE9E754
:10509800544AE7E7544AE5E7544AE3E7FDF73AFD9F
:1050A800636AD3B1012B23D0022B23D0032B23D047
:1050B800042B23D0052B23D0062B23D0072B23D05A
:1050C800082B23D0092B23D00A2B23D00B2B01D05C
:1050D800012203E04FF4807200E00122B0FBF2F2FB
:1050E800636802EB5302B2FBF3F292B2002018E7B6
:1050F8000222F3E70422F1E70622EFE70822EDE7B0
:105108000A22EBE70C22E9E71022E7E72022E5E78D
:105118004022E3E78022E1E7636AD3B1012B22D082
:10512800022B23D0032B24D0042B25D0052B26D0EB
:10513800062B27D0072B28D0082B29D0092B2AD0BB
:105148000A2B2BD00B2B02D04FF4004203E0802215
:1051580001E04FF40042636802EB5302B2FBF3F242
:1051680092B20020DDE64FF48042F4E74FF400529B
:10517800F1E741F25552EEE74FF48052EBE740F683
:10518800CC42E8E740F6AA22E5E74FF40062E2E7FE
:105198004FF48062DFE74FF40072DCE74FF480726F
:1051A800D9E701200022BCE60120C3E60020C1E6C1
:1051B8000120BFE60120BDE60120BBE60120B9E6DB
:1051C8000120B7E60024F40000127A0000093D002F
:1051D800AAB0280080841E00006A180055581400E0
:1051E80040420F0020A1070090D0030048E80100CA
:1051F800836A13F0010F06D00268536823F4003362
:10520800C16A0B435360836A13F0020F06D0026829
:10521800536823F48033016B0B435360836A13F0A4
:10522800040F06D00268536823F48023416B0B43B4
:105238005360836A13F0080F06D00268536823F49A
:105248000043816B0B435360836A13F0100F06D041
:105258000268936823F48053C16B0B439360836A9D
:1052680013F0200F06D00268936823F40053016CF2
:105278000B439360836A13F0400F0AD002685368A7
:1052880023F48013416C0B435360436CB3F5801FC8
:105298000BD0836A13F0800F06D00268536823F49A
:1052A8000023C16C0B43536070470268536823F4B2
:1052B800C003816C0B435360EBE72DE9F0410546D1
:1052C8000F4616469846069C2B68DB6937EA0303A7
:1052D8000CBF01230023B3421ED1B4F1FF3FF3D02A
:1052E800FBF744FEA0EB0800A04201D8002CEBD14C
:1052F8002A68136823F4D07313602A68936823F02C
:10530800010393602023C5F88030C5F8843000235A
:1053180085F87C30032000E00020BDE8F08130B53E
:1053280083B004460023C0F88830FBF71FFE05460B
:1053380023681B6813F0080F0ED123681B6813F04D
:10534800040F17D12023C4F88030C4F8843000201B
:1053580084F87C0003B030BD6FF07E4300930346B1
:1053680000224FF400112046FFF7A7FF0028E4D0E1
:105378000320EFE76FF07E4300932B4600224FF4A3
:1053880080012046FFF799FF0028DBD00320E1E7E2
:1053980078B310B50446D0F880300BB32423C4F892
:1053A80080302268136823F0010313602046FFF75A
:1053B80077F8012813D0A36ABBB92268536823F48D
:1053C800904353602268936823F02A03936022680D
:1053D800136843F0010313602046FFF7A0FF10BDD8
:1053E80080F87C3001F0E0FBD8E72046FFF700FFAB
:1053F800E3E701207047000010B485B002461A4B5D
:1054080093E8030004AC04E903006C46083393E80E
:10541800030084E80300536EFBB111688B68C3F383
:105428004263886804A901EB507010F8081CC90091
:1054380010F8100C91FBF0F1A2F86A1004A90B44C3
:1054480013F8081CC90013F8103C91FBF3F3A2F8F9
:10545800683005B05DF8044B70470123A2F86A3044
:10546800A2F86830F5E700BF98A1000870477047B8
:10547800704790F87C30012B18D0012380F87C30DD
:105488002423C0F8803003681A68196821F00101E4
:10549800196022F000520023436601680A60202246
:1054A800C0F8802080F87C3018467047022070478A
:1054B80038B590F87C30012B1DD00446012380F8C4
:1054C8007C302423C0F8803003681D681A6822F0F5
:1054D80001021A600268936823F0604319439160DF
:1054E800FFF78AFF23681D602023C4F8803000205E
:1054F80084F87C0038BD0220FCE738B590F87C3091
:10550800012B1DD00446012380F87C302423C0F8E9
:10551800803003681D681A6822F001021A60026868
:10552800936823F0606319439160FFF765FF236870
:105538001D602023C4F88030002084F87C0038BD2A
:105548000220FCE70000000010B52DED028B86B0AC
:105558000446002204920592A6238DF8103090ED9F
:10556800038A01894068FCF740FEFF230093042367
:1055780003AA04A92068FDF719FF012221896068A0
:10558800FCF733FE9DF80D009DF80E30DB0043EA72
:10559800C0239DF80F0043EA5010FAF77BFF002262
:1055A800134BFAF7F1FF10A3D3E90023FBF716F921
:1055B800FBF784FA07EE900A78EE277A9FED0D7ACA
:1055C800F4EEC77AF1EE10FA09DC9FED0A7A77EE6D
:1055D800677AC4ED047A06B0BDEC028B10BD77EE95
:1055E800C77A77EE677AF4E700000000FCFF1F41F6
:1055F800008076400000B44370B52DED028B06465E
:105608000D461446B0EE408A182003F085F806606F
:105618004560048180ED038A024A4261BDEC028B39
:1056280070BD00BF51550008054AD36843F0807328
:10563800D360044A136843F001031360704700BF46
:10564800F0ED00E0001000E02DE9F0418CB00024FE
:105658000794089409940A940B943C4BDA6C42F032
:105668001002DA64DA6C02F010020192019ADA6C24
:1056780042F00202DA64DA6C02F002020292029A42
:10568800DA6C42F00102DA64DA6C02F00102039289
:10569800039ADA6C42F00402DA64DA6C02F004026B
:1056A8000492049ADA6C42F02002DA64DA6C02F0AE
:1056B80020020592059ADA6C42F00802DA64DB6C83
:1056C80003F008030693069BDFF88C8022464FF40C
:1056D80000714046FCF789FD01224FF400414FF06C
:1056E8009040FCF782FD1A4F01224FF400413846E2
:1056F800FCF77BFD4FF40073079301260896099485
:1057080003250A9507A94046FCF798FC022307934E
:105718000894099407A90F48FCF790FC4FF4004837
:10572800CDF81C80089609940A9507A94FF0904077
:10573800FCF784FCCDF81C80089609940A9507A903
:105748003846FCF77BFC0CB0BDE8F0810010024045
:10575800000C0048001000480004004800B583B061
:10576800124B9A6C42F004029A649A6C02F004029A
:105778000092009A9A6C42F001029A649B6C03F0C2
:1057880001030193019B002211460B20FCF74CFA00
:105798000B20FCF77DFA002211460C20FCF744FA96
:1057A8000C20FCF775FA03B05DF804FB001002400A
:1057B80038B50F4C0F4B23600F4B63600025A56075
:1057C800E56025610C236361A561E5612562656279
:1057D800A5622046FFF7DCFD29462046FFF768FE54
:1057E80029462046FFF789FE2046FFF742FE38BDCE
:1057F800F4080020004C004000CA0800F0B58DB045
:10580800002509950A950B952022294601A802F042
:1058180096FF184C4FF0A04323606560A560E560D3
:10582800256165610426A6612577657701272762CA
:1058380084F82450E562256384F83850E56384F8D9
:1058480040502046FBF798FB099509A92046FCF72C
:10585800E1F8094B01930623029303977F230493EE
:10586800059606950DEB06012046FBF7E9FC0DB001
:10587800F0BD00BF24060020002090B6F0B589B026
:1058880020220021684602F05AFF154C154B236070
:1058980000256560A560E560256165610426A6614F
:1058A800257765770127276284F82450E562256308
:1058B80084F83850E56384F840502046FBF75CFBD9
:1058C800094B00930623019302977F2303930496C1
:1058D800059569462046FBF7B3FC09B0F0BD00BF4B
:1058E8004804002000010050000029C3F0B58DB025
:1058F800002509950A950B952022294601A802F052
:105908001EFF174C174B23606560A560E560256195
:1059180065610426A661257765770127276284F8E3
:105928002450E562256384F83850E56384F84050D4
:105938002046FBF721FB099509A92046FCF76AF8E0
:10594800094B01930623029303977F23049305963B
:1059580006950DEB06012046FBF772FC0DB0F0BD75
:105968009006002000040050002098B608B50A48A8
:105978000A4B036080234360402383600023036154
:1059880001220275836143624FF440428262C3621E
:10599800FCF7E8FC08BD00BFE80500200003014053
:1059A80008B50A480A4B036080234360402383609C
:1059B8000023036101220275836143624FF4404270
:1059C8008262C362FCF7CEFC08BD00BF98030020CA
:1059D8000403014008B50A480A4B0360802343606A
:1059E80040238360002303610122027583614362BF
:1059F8004FF440428262C362FCF7B4FC08BD00BFAA
:105A0800040500200803014008B50E480E4B03604A
:105A18004FF482734360002383604FF4E062C260F6
:105A2800036143614FF4007282612022C261036204
:105A3800436283620722C262036308234363FDF75C
:105A480058FC08BDE00300200038004008B50E48A7
:105A58000E4B03604FF482734360002383604FF45E
:105A6800E062C260036143614FF4007282612022E8
:105A7800C2610362436283620722C262036308232E
:105A88004363FDF736FC08BD84050020003C004058
:105A980030B59DB00024189419941A941B94159449
:105AA800169417940E940F941094119412941394BE
:105AB80014943422214601A802F041FE2A4D2B4BB2
:105AC8002B606C602023AB6041F29903EB602C6182
